:020000040000FA
:100000000C945D000C9421080C94FA070C94850064
:100010000C9485000C9485000C9485000C9485004C
:100020000C9485000C9485000C9485000C9485003C
:100030000C9485000C9485000C9485000C9485002C
:100040000C94B0070C9485000C946E080C9448082E
:100050000C9485000C9485000C9485000C9485000C
:100060000C9485000C9485000000000024002700FB
:100070002A0000000000250028002B0004040404CE
:100080000404040402020202020203030303030342
:10009000010204081020408001020408102001021F
:1000A00004081020000000080002010000030407FB
:1000B0000000000000000000A00811241FBECFEFC8
:1000C000D8E0DEBFCDBF24E0A4E9B3E001C01D92BB
:1000D000AE39B207E1F713E0A0E0B1E0EAE3F6E2FF
:1000E00002C005900D92A439B107D9F710E0CDE513
:1000F000D0E004C02197FE010E94440ECC35D10708
:10010000C9F70E94EA080C941B130C94000082307B
:10011000C8F4E82FF0E0EE0FFF1FE45EFE4F71839E
:100120006083813041F0809169008C7F8260809390
:100130006900E89A089580916900837F88608093C0
:100140006900E99A089590E0FC01EC55FF4F249175
:10015000FC01E057FF4F3491FC01E458FF4FE4915C
:10016000EE23C9F0222339F0233001F1A8F4213025
:1001700019F1223029F1F0E0EE0FFF1FEE58FF4F8A
:10018000A591B4918FB7F894EC91611126C0309588
:100190003E233C938FBF08952730A9F02830C9F043
:1001A000243049F7809180008F7D03C080918000CA
:1001B0008F7780938000DFCF84B58F7784BDDBCFCE
:1001C00084B58F7DFBCF8091B0008F778093B00096
:1001D000D2CF8091B0008F7DF9CF3E2BDACFCF9375
:1001E000DF9390E0FC01E057FF4F249184589F4F2C
:1001F000FC0184918823D1F090E0880F991FFC01C5
:10020000E859FF4FA591B491FC01EE58FF4FC591FD
:10021000D491623071F49FB7F8943C91822F80950D
:1002200083238C93E8812E2B28839FBFDF91CF916E
:1002300008958FB7F894EC912E2B2C938FBFF6CFA7
:100240001F93CF93DF93182FEB0161E00E94EF0023
:10025000209739F460E0812FDF91CF911F910C94AA
:10026000A300CF3FD10511F461E0F5CFE12FF0E01D
:10027000EC55FF4FE491E33031F140F4E130B1F05F
:10028000E230E1F0C038D1057CF7E4CFE73029F166
:10029000E83059F1E430B1F78091800080628093BA
:1002A0008000D0938B00C0938A0004C084B580681E
:1002B00084BDC7BDDF91CF911F91089584B5806241
:1002C00084BDC8BDF7CF8091800080688093800096
:1002D000D0938900C0938800EDCF8091B0008068F2
:1002E0008093B000C093B300E5CF8091B0008062EE
:1002F0008093B000C093B400DDCF0F931F93CF93D2
:10030000DF93062F142F682F70E0C6E9D4E08881B0
:100310000E942001602F70E089810E942001612FDE
:1003200070E08A81DF91CF911F910F910C94200191
:10033000CF93DF93C6E9D4E070E060E088810E944B
:10034000200170E060E089810E94200170E060E09F
:100350008A81DF91CF910C9420013FB7F89480916E
:10036000F5039091F603A091F703B091F80326B539
:10037000A89B05C02F3F19F00196A11DB11D3FBFDD
:10038000BA2FA92F982F8827BC01CD01620F711DAC
:10039000811D911D42E0660F771F881F991F4A95A6
:1003A000D1F708958F929F92AF92BF92CF92DF9232
:1003B000EF92FF926B017C010E94AD014B015C0149
:1003C000C114D104E104F104B9F00E94AD0168192F
:1003D00079098A099B09683E73408105910580F37C
:1003E00021E0C21AD108E108F10888EE880E83E006
:1003F000981EA11CB11CE4CFFF90EF90DF90CF902E
:10040000BF90AF909F908F900895DF92EF92FF92F0
:100410000F931F93CF93DF938C01F62EE42ED22EF1
:10042000D0E0C0E04D2D6E2D8F2D0E947D0164EF38
:1004300071E080E090E00E94D2010E94980164EF98
:1004400071E080E090E00E94D20121960C171D0718
:1004500049F7DF91CF911F910F91FF90EF90DF90BF
:1004600008952FB7F8946091F1037091F203809191
:10047000F3039091F4032FBF089508950895AF9268
:10048000BF92CF92DF92EF92FF920F931F93CF9381
:10049000DF936C017B018B01040F151FEB015E01E3
:1004A000AE18BF08C017D10759F06991D601ED9178
:1004B000FC910190F081E02DC6010995892B79F717
:1004C000C501DF91CF911F910F91FF90EF90DF90C9
:1004D000CF90BF90AF900895FC01538D448D252F90
:1004E00030E0842F90E0821B930B541710F0CF96CE
:1004F000089501970895FC01918D828D981761F000
:10050000A28DAE0FBF2FB11D5D968C91928D9F5F16
:100510009F73928F90E008958FEF9FEF08950F9350
:100520001F930E9431026093010470930204809330
:1005300003049093040489EF93E00E947B0297FFE9
:100540001DC00E943102009101041091020420910B
:10055000030430910404601B710B820B930B009118
:10056000FD031091FE032091FF03309100046017FA
:10057000710782079307F8F28FEF9FEF1F910F919A
:100580000895FC01918D828D981731F0828DE80FCE
:10059000F11D858D90E008958FEF9FEF0895FC0188
:1005A000918D228D892F90E0805C9F4F821B910955
:1005B0008F739927089589EF93E00E94CF0221E07D
:1005C000892B09F420E0822F089580E090E0892BA8
:1005D00029F00E94DB0281110C9400000895FC01B7
:1005E000A48DA80FB92FB11DA35ABF4F2C91848D94
:1005F00090E001968F739927848FA689B7892C93F1
:10060000A089B1898C91837080648C93938D848D43
:10061000981306C00288F389E02D80818F7D808346
:100620000895EF92FF920F931F93CF93DF93EC0106
:1006300081E0888F9B8D8C8D98131AC0E889F98989
:10064000808185FF15C09FB7F894EE89FF8960838C
:10065000E889F98980818370806480839FBF81E00D
:1006600090E0DF91CF911F910F91FF90EF9008954F
:10067000F62E0B8D10E00F5F1F4F0F731127E02E2A
:100680008C8D8E110CC00FB607FCFACFE889F98962
:10069000808185FFF5CFCE010E94EF02F1CFEB8D77
:1006A000EC0FFD2FF11DE35AFF4FF0829FB7F89436
:1006B0000B8FEA89FB8980818062CFCFCF93DF9354
:1006C000EC01888D8823B9F0AA89BB89E889F9896A
:1006D0008C9185FD03C0808186FD0DC00FB607FC9F
:1006E000F7CF8C9185FFF2CF808185FFEDCFCE01D2
:1006F0000E94EF02E9CFDF91CF9108950F931F93EE
:100700000E9431020091E4031091E5032091E60379
:100710003091E703601B710B820B930B28EE33E0E3
:1007200040E050E00E94220ECA01B9011F910F91D2
:100730000895CF92DF92EF92FF920F931F93CF9382
:10074000DF93EC010E943102C880D980EA80FB80EF
:10075000009108011091090120910A0130910B01CB
:100760006C197D098E099F09061717072807390795
:1007700080F40E943102688379838A839B8381E0BD
:10078000DF91CF911F910F91FF90EF90DF90CF906D
:10079000089580E0F5CF8091EC038130C1F580E0D1
:1007A00091E00E949903882391F18091E003909158
:1007B000E103A091E203B091E303892B8A2B8B2BF9
:1007C00031F58091D4039091D503A091D603B091D7
:1007D000D7030196A11DB11D8093D4039093D50337
:1007E000A093D603B093D7032FEF40E060E081E001
:1007F00090E00E94050281E090E0A0E0B0E08093EC
:100800000C0190930D01A0930E01B0930F01089578
:100810008091EC038130C1F584E091E00E9499035E
:10082000882391F18091E0039091E103A091E2038C
:10083000B091E303892B8A2B8B2B31F58091D80360
:100840009091D903A091DA03B091DB030196A11D29
:10085000B11D8093D8039093D903A093DA03B0938A
:10086000DB0320E04FEF6FEF81E090E00E94050294
:1008700081E090E0A0E0B0E080930C0190930D0146
:10088000A0930E01B0930F010895FC010190002088
:10089000E9F73197AF01481B590BBC0189EF93E091
:1008A0000C943F028F929F92AF92BF920F931F932F
:1008B000CF93DF93CDB7DEB7A1970FB6F894DEBF25
:1008C0000FBECDBF19A2423008F44AE08E010F5D81
:1008D0001F4F842E912CB12CA12CA50194010E94B4
:1008E000220EE62FB901CA01EA30F4F4E05DD80126
:1008F000EE938D01232B242B252B79F790E080E0BC
:10090000109719F0CD010E944504A1960FB6F894F6
:10091000DEBF0FBECDBFDF91CF911F910F91BF9072
:10092000AF909F908F900895E95CE1CFCF92DF92D6
:10093000EF92FF92CF93DF936B017C016DE289EF21
:1009400093E00E941103EC0166277727CB016C1915
:100950007D098E099F094AE00E9452048C0F9D1F59
:10096000DF91CF91FF90EF90DF90CF900895CF93DC
:10097000DF930E944504EC0188E391E00E94450466
:100980008C0F9D1FDF91CF9108951092D403109288
:10099000D5031092D6031092D7031092D803109269
:1009A000D9031092DA031092DB031092DC03109249
:1009B000DD031092DE031092DF031092E003109229
:1009C000E1031092E2031092E3031092ED030E9400
:1009D00098010E9431026093E4037093E5038093D1
:1009E000E6039093E7038091180190911901A0917B
:1009F0001A01B0911B010197A109B1090297A10544
:100A0000B105A0F420911001309111014091120123
:100A100050911301ACE3B0E00E94D10D6093E80364
:100A20007093E9038093EA039093EB038BE391E0E7
:100A30000C94B7040E94C50481E08093EC0320E08D
:100A40004FEF60E082E090E00E94050280E591E0D7
:100A50000C94B704CF92DF92EF92FF928091E00363
:100A60009091E103A091E203B091E3030197A10506
:100A7000B10509F4BBC08091180190911901A091B2
:100A80001A01B0911B0181309105A105B10509F44E
:100A900045C00297A105B10509F45DC0C090E0030F
:100AA000D090E103E090E203F090E30381E0C81608
:100AB000D104E104F10409F099C01092EC0380E63E
:100AC00091E00E94B7044091D4035091D503609106
:100AD000D6037091D7038091D8039091D903A09148
:100AE000DA03B091DB0384179507A607B70708F070
:100AF00055C08FE691E00E94B704C092DC03D0920B
:100B0000DD03E092DE03F092DF034FEF60E080E070
:100B1000FF90EF90DF90CF900C947D010E947E03B8
:100B2000C090E803D090E903E090EA03F090EB0373
:100B30006C157D058E059F0508F4B0CF81E090E02F
:100B4000A0E0B0E08093E0039093E103A093E20380
:100B5000B093E303A3CF8091140190911501A0916C
:100B60001601B09117014091D4035091D5036091C3
:100B7000D6037091D703481759076A077B07F0F629
:100B80004091D8035091D9036091DA037091DB034F
:100B9000481759076A077B0788F680CF4817590717
:100BA0006A077B07A0F482E891E00E94B70482E024
:100BB00090E0A0E0B0E08093DC039093DD03A0938D
:100BC000DE03B093DF0340E06FEF8FEFA1CF85E945
:100BD00091E00E94B7041092DC031092DD031092A2
:100BE000DE031092DF0340E060E0EFCFFF90EF9074
:100BF000DF90CF900895CF93DF93BC01990F880BBE
:100C0000990B97FF0CC00E949604EC0188E391E0D9
:100C10000E9445048C0F9D1FDF91CF9108954AE0FB
:100C20000E945204F2CFFC0180819181009711F063
:100C30000C94E60E0895FC0180819181009711F0DB
:100C40000C94890D60E070E0CB010895FC012481D3
:100C50003581FB014481558124173507E1F4FC01FE
:100C600080819181FB01608171810097D1F06115D4
:100C70007105A1F4232BC1F0FC01808190E008C034
:100C8000232B91F0FB01808190E091958195910952
:100C900021E0892B09F020E0822F08950E94401066
:100CA000F7CF6115710561F721E0F6CF0F931F9320
:100CB000CF93DF93EC0188819981009759F02A81C5
:100CC0003B812617370730F081E0DF91CF911F91EC
:100CD0000F9108958B016F5F7F4F0E946F0F0097F8
:100CE00059F0998388831B830A832C813D81232BB0
:100CF00059F7FC011082E8CF80E0E7CFEF92FF9236
:100D00000F931F93CF93DF93EC017B018A01BA010C
:100D10000E94560628813981811114C021153105A0
:100D200019F0C9010E94E60E198218821D821C82E8
:100D30001B821A82CE01DF91CF911F910F91FF90FC
:100D4000EF9008951D830C83B701C9010E944910DB
:100D5000F1CFFC011182108213821282158214825B
:100D6000FB0101900020E9F73197AF01461B570BBB
:100D70000C947E06AF92BF92CF92DF92EF92FF92D9
:100D80000F931F93CF93DF93EC016B015A0179010D
:100D90002417350720F48B2D5901E42EF82E6AE331
:100DA00071E0CE010E94A906D60114960D911C9106
:100DB000A016B10628F5E016F10608F48701D60161
:100DC000ED91FC911197E00FF11FF08010826D9171
:100DD0007C916A0D7B1D61157105F1F0FB0101909D
:100DE0000020E9F73197AF01461B570BCE010E9457
:100DF0007E06F60180819181080F191FD801FC92AF
:100E0000CE01DF91CF911F910F91FF90EF90DF9076
:100E1000CF90BF90AF90089588819981009711F08D
:100E20000E94E60E198218821D821C821B821A8281
:100E3000E0CFCF92DF92EF92FF920F931F93CF9369
:100E4000DF93CDB7DEB7C054D1090FB6F894DEBF3B
:100E50000FBECDBF8091180190911901A0911A0188
:100E6000B0911B010197A105B10509F076C00E9460
:100E70007E030091E8031091E9032091EA03309189
:100E8000EB03601771078207930708F062C06801DF
:100E90007901C61AD70AE80AF90AC701B6012CE394
:100EA00030E040E050E00E94220EE091DB03EF933F
:100EB000E091DA03EF93E091D903EF93E091D80347
:100EC000EF93E091D703EF93E091D603EF93E09196
:100ED000D503EF93E091D403EF939F938F937F9388
:100EE0006F935F934F933F932F9384EA91E09F9387
:100EF0008F931F9280E48F938E010F5F1F4F1F937C
:100F00000F930E946D1064E973E0C8010E944010C5
:100F10000FB6F894DEBF0FBECDBF892B51F0C801CC
:100F20000E94B70440E450E0B80184E993E00E94D5
:100F30005E10C05CDF4F0FB6F894DEBF0FBECDBFB2
:100F4000DF91CF911F910F91FF90EF90DF90CF90A5
:100F5000089560E070E0CB01A2CF0E947E039FCF96
:100F60001F920F920FB60F9211242F933F938F93DE
:100F70009F93AF93BF938091F1039091F203A0915F
:100F8000F303B091F4033091F00323E0230F2D37E6
:100F900058F50196A11DB11D2093F0038093F10334
:100FA0009093F203A093F303B093F4038091F503BD
:100FB0009091F603A091F703B091F8030196A11D5B
:100FC000B11D8093F5039093F603A093F703B093BC
:100FD000F803BF91AF919F918F913F912F910F9007
:100FE0000FBE0F901F90189526E8230F0296A11DA3
:100FF000B11DD2CF1F920F920FB60F9211242F93D3
:101000003F934F935F936F937F938F939F93AF9390
:10101000BF93EF93FF93E0911E01F0911F0109959B
:10102000FF91EF91BF91AF919F918F917F916F91C0
:101030005F914F913F912F910F900FBE0F901F9096
:1010400018951F920F920FB60F9211242F933F9372
:101050004F935F936F937F938F939F93AF93BF93C0
:10106000EF93FF93E0911C01F0911D010995FF9111
:10107000EF91BF91AF919F918F917F916F915F9110
:101080004F913F912F910F900FBE0F901F90189589
:101090001F920F920FB60F9211242F933F934F93ED
:1010A0005F936F937F938F939F93AF93BF93EF93D0
:1010B000FF9389EF93E00E94EF02FF91EF91BF91C0
:1010C000AF919F918F917F916F915F914F913F91E0
:1010D0002F910F900FBE0F901F9018951F920F9297
:1010E0000FB60F9211242F938F939F93EF93FF933B
:1010F000E0910904F0910A048081E0910F04F091DD
:10110000100482FD1BC09081809112048F5F8F7349
:1011100020911304821741F0E0911204F0E0E750AF
:10112000FC4F958F80931204FF91EF919F918F91C7
:101130002F910F900FBE0F901F9018958081F4CFC4
:10114000E9EFF3E01382128288EE93E0A0E0B0E0D2
:1011500084839583A683B7838AE291E09183808319
:1011600085EC90E09587848784EC90E0978786876C
:1011700080EC90E0918B808B81EC90E0938B828B64
:1011800082EC90E0958B848B86EC90E0978B868B3D
:10119000118E128E138E148EE6E9F4E089E08083BE
:1011A0008AE081838BE082838CE0838361E089E045
:1011B0000E94EF0061E08AE00E94EF0061E08BE0B6
:1011C0000E94EF0061E08CE00E94EF0060E08CE0A4
:1011D0000C94A300CF93DF93CDB7DEB7CC56D109E3
:1011E0000FB6F894DEBF0FBECDBF789484B5826091
:1011F00084BD84B5816084BD85B5826085BD85B5BB
:10120000816085BD80916E00816080936E00109238
:1012100081008091810082608093810080918100B3
:101220008160809381008091800081608093800044
:101230008091B10084608093B1008091B0008160A2
:101240008093B00080917A00846080937A008091CE
:101250007A00826080937A0080917A008160809326
:101260007A0080917A00806880937A001092C100A1
:10127000E0910904F0910A0482E08083E091050482
:10128000F09106041082E0910704F09108048FECBD
:10129000808310921104E0910D04F0910E0486E019
:1012A0008083E0910B04F0910C0480818061808345
:1012B000E0910B04F0910C04808188608083E091C0
:1012C0000B04F0910C04808180688083E0910B0412
:1012D000F0910C0480818F7D808362E082E00E9427
:1012E000EF0062E083E00E94EF006BEC73E080E0CF
:1012F0000E94870068E074E081E00E94870082E03D
:1013000090E0A0E0B0E08093180190931901A093C1
:101310001A01B0931B0183EE91E00E94B7040E9472
:101320001A05CE0101967C01E3E4F0E0EC0FFD1F0D
:101330003696AB96FFAFEEAFAB97412C512C3201F6
:10134000439483E490E08C0F9D1F0C96AD969FAF65
:101350008EAFAD9789EF93E00E94CF021816190661
:101360000CF0BFC36AE371E0CE018F599F4F0E941A
:10137000A9060E948F0297FD25C08A30910511F1C0
:1013800089831A82A7960EAD1FADA7970F5F1F4FD7
:10139000B801CE018F599F4F0E945606882349F30A
:1013A000A3962EAD3FADA397A7968EAD9FADA79701
:1013B000B701820F931F0E944910A7961FAF0EAF6F
:1013C000A797D7CFA396AEACBFACA397A114B10497
:1013D00049F0A7960EAD1FADA79765010115110540
:1013E00009F093C066E072E0CE018D5B9F4F0E94D2
:1013F000A9066BE072E0AB968EAD9FADAB970E94F5
:10140000A9066AE371E0AD968EAD9FADAD970E94DF
:10141000A906A7968EAD9FADA797A9969FAF8EAF51
:10142000A997A3962EAC3FACA397FE01ED5BFF4FAF
:101430004F0110E000E0F40144815581C80101969C
:101440005C01A996EEADFFADA997E417F50708F486
:10145000B1C02114310409F4ADC0F401608171817F
:101460006115710509F4A6C0C1010E9450106C01FC
:10147000892B09F09FC086E0809FF001819FF00DCD
:101480001124EE0DFF1DEE5BFF4F44815581A9969F
:101490002EAD3FADA997BE016F597F4FC7010E9486
:1014A000BA06A3968EAD9FADA397009709F46BC0C3
:1014B00069817A816115710509F463C0A5964EAD05
:1014C0005FADA5972D813E814217530708F459C09F
:1014D0000E9449108D819E81A7969FAF8EAFA797DE
:1014E0001E821D82C7010E941306F1E0AF16B104EF
:1014F00009F469C082E0A816B10409F4B8C189E70B
:1015000093E00E94B704D5C2640146019FEF891A97
:10151000990AF6018081082E000C990B0E94C50DD6
:10152000892B91F7015011090A0D1B1DF8018081CB
:10153000082E000C990B0E94C50D892B31F00C155B
:101540001D0518F001501109F1CFA8014F5F5F4F41
:101550004C195D09A7965FAF4EAFA797AC14BD04B9
:1015600020F4B601C5010E942C10A396EEADFFAD8C
:10157000A397A7968EAD9FADA797E80FF91F10828E
:1015800031CF0E94E60E89819A81A3969FAF8EAFDC
:10159000A3978B819C81A5969FAF8EAFA5978D81D8
:1015A0009E81A7969FAF8EAFA7971A8219821C8241
:1015B0001B8296CF850196E0890E911C03301105A0
:1015C00009F039CF9CCFA7968EAD9FADA797892BF9
:1015D00071F0A3960EAD1FADA39760E270E0C80155
:1015E0000E9435109C01201B310B892B11F42FEF29
:1015F0003FEF50E040E0BE016F597F4FCE01855A6A
:101600009F4F0E94BA06A796AEACBFACA797A11495
:10161000B10471F0A3960EAD1FADA39760E270E028
:10162000C8010E943510AC01401B510B892B11F4ED
:101630004FEF5FEF4F5F5F4F9501BE016F597F4FD7
:10164000CE018B5A9F4F0E94BA0660E172E0C7013B
:101650000E94A90665E172E0CE0107960E94A906E4
:101660006AE172E0CE010D960E94A90660E272E086
:10167000CE0143960E94A90666E272E0CE01499629
:101680000E94A9066BE272E0CE014F960E94A90665
:1016900061E372E0CE0185960E94A90668E372E0DC
:1016A000CE018B960E94A906570110E000E0B5011B
:1016B000CE01855A9F4F0E9426060F5F1F4FE6E01E
:1016C000AE0EB11C882381F0F8013297E730F105A6
:1016D00088F4E359F44F0C94440EB50BDB0BF50B77
:1016E000F80BFD0B000C220C0830110501F78DEFF3
:1016F00092E058C06FE372E0CE01C1960E94A90645
:1017000065E172E0CE01C7960E94A90664E472E02A
:10171000CE01CD960E94A906BE016F5C7F4FCE011F
:101720008B5A9F4F0E942606811185C1BE01695CBC
:101730007F4FCE018B5A9F4F0E942606811178C1A0
:10174000BE01635C7F4FCE018B5A9F4F0E942606DD
:10175000882309F48DC182E0C82ED12C6CC18CE69F
:1017600092E082C183EE91E07FC1CE018B5A9F4F00
:101770000E941B064B01770FAA08BB08809210013C
:1017800090921101A0921201B09213018CE892E0A4
:101790000E944504B7FE09C0C501B4010E94960429
:1017A0008BE992E00E94B7046FC14AE0C501B40121
:1017B0000E945204F5CFCE018B5A9F4F0E941B0608
:1017C0004B01CB01770FAA0BBB0B809314019093B5
:1017D0001501A0931601B09317018CEA92E00E94C4
:1017E0004504C4010E94FB054FC10E941A054CC16B
:1017F0001092EC0380E691E0D5CF0E94C50444C16D
:10180000CE018B5A9F4F0E941B064B01CB01770FD5
:10181000AA0BBB0B8093D4039093D503A093D6035C
:10182000B093D7038FEB92E00E944504C4010E945D
:10183000FB0540920C0150920D0160920E017092D6
:101840000F0122C1CE018B5A9F4F0E941B064B01F4
:10185000CB01770FAA0BBB0B8093D8039093D903CE
:10186000A093DA03B093DB038EED92E0DDCF1AAAEA
:1018700019AA1CAA1BAA1EAA1DAAA3966EAD7FAD0B
:10188000A3976115710541F0A7964EAD5FADA7977F
:10189000CE01C1960E947E0660E173E0C7010E94FE
:1018A000A90666E173E0CE0107960E94A906B7017A
:1018B000CE01C1960E94260681110DC0BE01695F4E
:1018C0007F4FCE01C1960E942606882309F45CC092
:1018D000CC24C394D12CCA94CD2861F00E9419075E
:1018E000CE0107960E941306C7010E941306CE017F
:1018F000C196DDC08DE193E00E9445046091100126
:101900007091110180911201909113014AE00E949F
:1019100052048AE293E00E94B70483E393E00E94BA
:101920004504609114017091150180911601909108
:1019300017014AE00E94520488E391E00E944504A6
:1019400083E493E00E94450480911801909119016D
:10195000A0911A01B0911B0181309105A105B1053B
:1019600069F038F00297A105B10559F08FE693E0D0
:1019700002C081E593E00E94B704B2CF8AE593E00C
:10198000FACF83E693E0F7CF89E793E0F4CF809135
:10199000ED03813011F40E94C5040F5F1F4F043026
:1019A000110509F0A0C00E9419070E942A0580E0D5
:1019B00090E0892B09F4CECC0E94DB02882309F445
:1019C000C0CC0E940000BDCC8091EE03813029F78D
:1019D0008091D4039091D503A091D603B091D70301
:1019E0000196A11DB11D8093D4039093D503A093BC
:1019F000D603B093D7031092EE0388C08091EF0313
:101A0000813059F68091D8039091D903A091DA03DF
:101A1000B091DB030196A11DB11D8093D803909373
:101A2000D903A093DA03B093DB031092EF036EC0E7
:101A3000CC24C394D12CC6010D2C000CAA0BBB0BDB
:101A40008093180190931901A0931A01B0931B0180
:101A500081E0C816D10409F482CE92E0C916D104FF
:101A600009F480CE8CE492E00E94B7040E941A052B
:101A7000CE01CD960E941306CE01C7960E94130692
:101A8000CE01C1960E9413068E010F5C1F4F0650B7
:101A90001109C8010E941306E016F106C1F7CE0134
:101AA0008B5A9F4F0E941306CE01855A9F4F0E946A
:101AB000130683E490E08C0F9D1F0C960E94130682
:101AC00083E490E08C0F9D1F06960E941306CE01C2
:101AD0008D5B9F4F0E941306CE018F599F4F0E942E
:101AE000130610E000E00230110509F46DCF033059
:101AF000110509F483CF0130110509F448CF809115
:101B0000EC03813009F049CF0E942A050E94190791
:101B100044CF1F93FC0199278827BC01E8941191B9
:101B20001032E9F3193010F01E30C8F31B3251F0B7
:101B30001D3249F4689406C00E94B00D610F711DFA
:101B4000811D911D119110531A30B0F33EF4909500
:101B50008095709561957F4F8F4F9F4F1F9108958E
:101B6000592F482F372F262F660F771F881F991F51
:101B7000660F771F881F991F620F731F841F951FA1
:101B8000660F771F881F991F089591110C94CE0D31
:101B9000803219F089508550C8F708959927882711
:101BA00008950E94130EA59F900DB49F900DA49FC1
:101BB000800D911D112408952F923F924F925F92B4
:101BC0006F927F928F929F92AF92BF92CF92DF924D
:101BD000EF92FF920F931F93CF93DF93CDB7DEB7B2
:101BE000CA1BDB0B0FB6F894DEBF0FBECDBF099446
:101BF0002A88398848885F846E847D848C849B849D
:101C0000AA84B984C884DF80EE80FD800C811B81AA
:101C1000AA81B981CE0FD11D0FB6F894DEBF0FBED9
:101C2000CDBFED010895A29FB001B39FC001A39F56
:101C3000700D811D1124911DB29F700D811D112405
:101C4000911D0895A1E21A2EAA1BBB1BFD010DC018
:101C5000AA1FBB1FEE1FFF1FA217B307E407F5075C
:101C600020F0A21BB30BE40BF50B661F771F881F38
:101C7000991F1A9469F760957095809590959B01CE
:101C8000AC01BD01CF010895EE0FFF1F0590F49147
:101C9000E02D09940F931F93CF93DF93823091052A
:101CA00010F482E090E0E0919C04F0919D0430E01B
:101CB00020E0B0E0A0E0309799F42115310509F457
:101CC0004AC0281B390B24303105D8F58A819B8105
:101CD0006115710589F1FB0193838283FE0111C0B7
:101CE000408151810281138148175907E0F048175C
:101CF000590799F4109761F012960C931297139666
:101D00001C933296CF01DF91CF911F910F910895CF
:101D100000939C0410939D04F4CF2115310551F0DC
:101D20004217530738F0A901DB019A01BD01DF0119
:101D3000F801C1CFEF01F9CF90939D0480939C04EB
:101D4000CDCFFE01E20FF31F819391932250310911
:101D500039832883D7CF20919A0430919B04232B79
:101D600041F4209122013091230130939B04209370
:101D70009A0420912001309121012115310541F46F
:101D80002DB73EB74091240150912501241B350BFE
:101D9000E0919A04F0919B04E217F307A0F42E1B44
:101DA0003F0B2817390778F0AC014E5F5F4F2417BF
:101DB000350748F04E0F5F1F50939B0440939A04E1
:101DC000819391939FCFF0E0E0E09CCFCF93DF939E
:101DD0000097E9F0FC01329713821282A0919C04D3
:101DE000B0919D04ED0130E020E01097A1F4208136
:101DF0003181820F931F20919A0430919B04281700
:101E0000390709F061C0F0939B04E0939A04DF91D5
:101E1000CF910895EA01CE17DF07E8F54A815B818B
:101E20009E0141155105B1F7E901FB83EA83499110
:101E30005991C40FD51FEC17FD0761F48081918182
:101E40000296840F951FE90199838883828193818B
:101E50009B838A83F0E0E0E012968D919C9113972A
:101E60000097B9F52D913C911197CD010296820F03
:101E7000931F20919A0430919B042817390739F653
:101E8000309751F510929D0410929C04B0939B04DE
:101E9000A0939A04BCCFD383C28340815181840F25
:101EA000951FC817D90761F44E5F5F4F88819981EC
:101EB000480F591F518340838A819B81938382837A
:101EC0002115310509F0B0CFF0939D04E0939C04F7
:101ED0009ECFFD01DC01C0CF13821282D7CFB0E0CC
:101EE000A0E0E5E7FFE00C94DE0D8C01009751F4D3
:101EF000CB010E944A0E8C01C801CDB7DEB7E0E1EC
:101F00000C94FA0DFC01E60FF71F9C0122503109D9
:101F1000E217F30708F49DC0D901CD91DC91119728
:101F2000C617D70798F0C530D10530F3CE01049716
:101F30008617970708F3C61BD70B2297C193D19337
:101F40006D937C93CF010E94E60ED6CF5B01AC1A55
:101F5000BD0A4C018C0E9D1EA0919C04B0919D0465
:101F6000512C412CF12CE12C109731F580919A04E1
:101F700090919B048815990509F05CC04616570698
:101F800008F058C08091200190912101009741F400
:101F90008DB79EB74091240150912501841B950B6C
:101FA000E817F90708F055C0F0939B04E0939A04F2
:101FB000F90171836083A0CF8D919C911197129646
:101FC0006C90129713967C901397A815B90559F544
:101FD0006C0142E0C40ED11CCA14DB0420F1AC0138
:101FE0004A195B09DA011296159780F062827382B2
:101FF00051834083D9016D937C93E114F10471F016
:10200000D7011396FC93EE93129776CF22968C0FFE
:102010009D1FF90191838083F301EFCFF0939D041D
:10202000E0939C0469CF4816590608F42C017D0101
:10203000D3019ACFCB010E944A0E7C01009749F050
:10204000AE01B8010E942C10C8010E94E60E870163
:1020500053CF10E000E050CFFB01DC0102C0019043
:102060000D9241505040D8F70895FC018191861798
:1020700021F08823D9F7992708953197CF01089542
:10208000FB01DC018D91019080190110D9F3990BAE
:102090000895FB01DC0101900D920020E1F7089505
:1020A000FB01DC014150504030F08D9101908019CE
:1020B00019F40020B9F7881B990B0895FB01DC0186
:1020C0004150504048F001900D920020C9F701C0E6
:1020D0001D9241505040E0F70895AEE0B0E0E3E7D4
:1020E000F0E10C94EA0D0D891E898F89988D26E008
:1020F0002C831A83098397FF02C080E090E8019740
:102100009E838D83AE01455E5F4F698D7A8DCE01D2
:1021100001960E949D104D815E8157FD0AC02F815E
:102120003885421753070CF49A01020F131FF80168
:1021300010822E96E4E00C94060EABE0B0E0E3EAE9
:10214000F0E10C94DC0D7C013B018A01FC0117825B
:102150001682838181FFC8C1CE0101965C01F7011F
:102160009381F30193FD859193FF81913F01882332
:1021700009F453C1853239F493FD859193FF819120
:102180003F01853229F4B70190E00E948D12E7CF1C
:10219000912C212C312CFFE1F31538F08B3211F109
:1021A00090F4803209F1833229F137FC3CC020EDF4
:1021B000280F2A3050F536FE20C08AE0989E200D68
:1021C0001124922E06C08D3291F0803371F76894FD
:1021D00030F8F30193FD859193FF81913F018111C7
:1021E000DACF21C0689431F8689432F8F2CF68945D
:1021F00033F8EFCF689434F8ECCFEAE02E9E200D50
:102200001124222E689435F8E4CF8E3229F436FC5E
:1022100004C1689436F8DDCF8C3619F4689437F829
:10222000D8CF8836B1F2982F9F7D95549330E0F047
:102230008336A1F18337C1F1833509F063C02801EA
:10224000F2E04F0E511CF801C080D180692D70E082
:1022500036FC02C06FEF7FEFC6010E9477124C017F
:10226000689437F882010AC00C5F1F4FFFE3F983BF
:1022700088248394912C6501E89437F833FE2DC0AF
:10228000522C8114910471F5552009F468CFB701DF
:1022900080E290E00E948D125A94F6CFF80180817E
:1022A00089830E5F1F4FE4CF2801F2E04F0E511CCF
:1022B000F801C080D180692D70E036FC02C06FEF5C
:1022C0007FEFC6010E9482124C018201D5CFB70177
:1022D00080E290E00E948D122A942814190409F0DB
:1022E000B0F7CECFF60137FC859137FE81916F01B3
:1022F000B70190E00E948D1251105A94F1E08F1AAC
:102300009108BFCF843619F0893609F077C0F801FB
:1023100037FE6BC060817181828193810C5F1F4F9A
:10232000F32DFF763F2E97FF09C09095809570950D
:1023300061957F4F8F4F9F4F689437F82AE030E0C8
:10234000A5010E94BD12C82ECA188C2C432C36FE43
:102350000CC0E89440F8C91440F434FE05C032FCC7
:1023600003C0F32DFE7E4F2E892C44FE95C0FE0146
:10237000EC0DF11D8081803309F087C0242D297E6A
:10238000422E842D8870582E43FC95C040FE8FC08D
:102390009C2C821418F42C0C922C981844FE91C09A
:1023A000B70180E390E00E948D1242FE09C088E7E9
:1023B00090E041FE02C088E590E0B7010E948D12D6
:1023C000C91408F48AC0CA94D12C9FEFC91AD90A3B
:1023D000CA0CDB1CF60182916F01B70190E00E94EC
:1023E0008D12AC14BD04B1F74FCF60817181072EFF
:1023F000000C880B990B0E5F1F4F92CFD32CE894E3
:10240000D4F82AE030E0853739F1232D297FD22E08
:102410008F3601F148F48835A9F0F701868197815C
:102420002B96E2E10C94F80D803749F08837A9F734
:10243000D4FE02C06894D2F820E130E00DC0689468
:10244000D4F8F6CF34FE03C0822F8660D82E20E168
:1024500032E002C028E030E0F801D7FE0FC0608112
:102460007181828193810C5F1F4FA5010E94BD1273
:10247000C82ECA183D2CE89437F867CF6081718167
:1024800090E080E00E5F1F4FF0CF42FC02C08394CB
:1024900078CF8394839475CF842D867809F471CF97
:1024A000F6CFB70180E290E00E948D1283948214EF
:1024B000C0F3512C73CF522C5818821408F46ECFED
:1024C000F8CF842D867809F47BCF8BE241FE80E241
:1024D00047FC8DE2B70190E071CFB70180E390E057
:1024E0000E948D129A946CCF8FEF9FEF99CFFC01D1
:1024F0000590615070400110D8F7809590958E0F2F
:102500009F1F0895FC016150704001900110D8F7A1
:10251000809590958E0F9F1F08950F931F93CF93D3
:10252000DF93182F092FEB018B8181FD09C01FEF6D
:102530000FEF812F902FDF91CF911F910F91089571
:1025400082FF14C02E813F818C819D81281739071D
:102550003CF4E881F981CF01019699838883108347
:102560008E819F8101969F838E83E3CFE885F985D5
:10257000812F0995892BA1F3DACFFA01AA272830F8
:1025800051F1203181F1E8946F936E7F6E5F7F4F40
:102590008F4F9F4FAF4FB1E03ED0B4E03CD0670FBC
:1025A000781F891F9A1FA11D680F791F8A1F911D0F
:1025B000A11D6A0F711D811D911DA11D20D009F45F
:1025C00068943F912AE0269F11243019305D3193A1
:1025D000DEF6CF010895462F4770405D4193B3E08A
:1025E0000FD0C9F7F6CF462F4F70405D4A3318F031
:1025F000495D31FD4052419302D0A9F7EACFB4E0E2
:10260000A6959795879577956795BA95C9F7009799
:102610006105710508959B01AC010A2E069457953A
:10262000479537952795BA95C9F7620F731F841F91
:10263000951FA01D0895F894FFCF00000000000032
:102640000000E803000000000000050000000A0090
:102650000000020000003E023E0200009E048000D6
:102660000000000011033F026C025E03CF027B02F8
:10267000C1020D0A00537069656C207A7572C3BC83
:10268000636B67657365747A7400537069656C2059
:1026900067657374617274657400537069656C204A
:1026A000676573746F707074005465616D20426C5F
:1026B000617520676577696E6E7421005465616D80
:1026C0002047656C6220676577696E6E74210055DE
:1026D0006E656E74736368696564656E21000A0ACD
:1026E0002020202020202020202020202530326C77
:1026F000753A2530326C750A5465616D20426C6103
:10270000752020202530326C753A2530326C7520CA
:1027100020205465616D2047656C620A0053706922
:10272000656C6D6F6475732061756620436C6173B1
:10273000736963506C61792067657365747A74009E
:10274000736574200067657420006D6F64650074A4
:10275000696D6500676F616C7300737461727400FA
:1027600073746F700072657365740073636F726564
:10277000310073636F726532006672656500636C69
:10278000617373696300537069656C6D6F64757311
:10279000206175662046726565506C6179206765B9
:1027A0007365747A7400537069656C6D6F647573CA
:1027B000206175662054696D65506C61792067658C
:1027C0007365747A7400537069656C7A65697420F6
:1027D0006175662000204D696E7574656E206765B1
:1027E0007365747A7400546F7265207A756D205326
:1027F000696567206175662000537069656C737444
:10280000616E642066C3BC72205465616D20426CA9
:102810006175206175662000537069656C73746121
:102820006E642066C3BC72205465616D2047656C80
:1028300062206175662000556E67C3BC6C74696761
:1028400065722042656665686C0073636F7265002F
:10285000636F6E66696700537069656C205A6569BD
:10286000743A2000206D696E7574656E00546F7245
:1028700065207A756D20536965673A200053706949
:10288000656C204D6F6475733A2000467265655023
:102890006C61790054696D65506C617900436C61BD
:1028A00073736963506C617900556E62656B616E1C
:1028B0006E7400556E67C3BC6C74696765732042A3
:0E28C000656665686C73666F726D617400000A
:107E0000112484B714BE81FFF0D085E080938100F7
:107E100082E08093C00088E18093C10086E0809377
:107E2000C20080E18093C4008EE0C9D0259A86E02C
:107E300020E33CEF91E0309385002093840096BBD3
:107E4000B09BFECF1D9AA8958150A9F7CC24DD24C4
:107E500088248394B5E0AB2EA1E19A2EF3E0BF2EE7
:107E6000A2D0813461F49FD0082FAFD0023811F036
:107E7000013811F484E001C083E08DD089C08234E0
:107E800011F484E103C0853419F485E0A6D080C0E4
:107E9000853579F488D0E82EFF2485D0082F10E0AE
:107EA000102F00270E291F29000F111F8ED06801E7
:107EB0006FC0863521F484E090D080E0DECF843638
:107EC00009F040C070D06FD0082F6DD080E0C81688
:107ED00080E7D80618F4F601B7BEE895C0E0D1E017
:107EE00062D089930C17E1F7F0E0CF16F0E7DF06D8
:107EF00018F0F601B7BEE89568D007B600FCFDCFD4
:107F0000A601A0E0B1E02C9130E011968C91119780
:107F100090E0982F8827822B932B1296FA010C0160
:107F200087BEE89511244E5F5F4FF1E0A038BF0790
:107F300051F7F601A7BEE89507B600FCFDCF97BE46
:107F4000E89526C08437B1F42ED02DD0F82E2BD052
:107F50003CD0F601EF2C8F010F5F1F4F84911BD097
:107F6000EA94F801C1F70894C11CD11CFA94CF0C13
:107F7000D11C0EC0853739F428D08EE10CD085E9AC
:107F80000AD08FE07ACF813511F488E018D01DD067
:107F900080E101D065CF982F8091C00085FFFCCF94
:107FA0009093C60008958091C00087FFFCCF809118
:107FB000C00084FD01C0A8958091C6000895E0E648
:107FC000F0E098E1908380830895EDDF803219F02E
:107FD00088E0F5DFFFCF84E1DECF1F93182FE3DFCA
:107FE0001150E9F7F2DF1F91089580E0E8DFEE27F6
:047FF000FF270994CA
:027FFE00040479
:00000001FF
