:020000040000FA
:100000000C941C030C94E4130C94BD130C94440343
:100010000C9444030C9444030C9444030C94440344
:100020000C9444030C9444030C94AA140C9454159B
:100030000C9463140C9444030C9444030C944403F4
:100040000C9473130C9444030C9431140C940B14FF
:100050000C9444030C9444030C9444030C94440304
:100060000C9444030C94440330003A0056657273B8
:100070007472696368656E65205A6569743A200018
:10008000566572626C656962656E6465205A656961
:10009000743A2000556E62656B616E6E74004B6C35
:1000A00061737369736368657320537069656C006D
:1000B0005A656974737069656C0046726569657329
:1000C00020537069656C004D6F6475733A20003A77
:1000D00020003A20003D3D3D20535049454C5354AB
:1000E000414E44203D3D3D002D2D2D2D2D2D2D2DFE
:1000F0002D2D2D2D2D2D2D2D2D2D2D004E65787472
:10010000696F6E2D446973706C61793A20004465A3
:100110006275672D4C6576656C3A2000546F726588
:10012000207A756D20536965673A2000204D696E0D
:100130007574656E00537069656C7A6569743A20F0
:1001400000556E62656B616E6E74004B6C6173730B
:1001500069736368657320537069656C005A6569DB
:1001600074737069656C00467265696573205370BD
:1001700069656C00537069656C6D6F6475733A20C6
:10018000003D3D3D204B4F4E464947555241544955
:100190004F4E203D3D3D00537069656C207A75726D
:1001A0007565636B67657365747A74005370696510
:1001B0006C2067657374617274657400537069654F
:1001C0006C20676573746F70707400556E67756529
:1001D0006C7469676572204745542D426566656891
:1001E0006C3A200048616E646C65476574436F6DBE
:1001F0006D616E64206D697420506172616D65740B
:1002000065723A2000204D696E7574656E206765D1
:100210007365747A7400537069656C7A65697420CB
:100220006175662000556E67C3BC6C746967657242
:100230002044656275672D4C6576656C2E2047C33A
:10024000BC6C746967652057657274653A20302C00
:1002500020312C20320044656275672D4D6F647526
:10026000733A2041757366C3BC68726C69636865D4
:10027000204D656C64756E67656E004465627567D8
:100280002D4D6F6475733A205769636874696765AB
:10029000204D656C64756E67656E004465627567B8
:1002A0002D4D6F6475733A204B65696E65204175FD
:1002B00073676162656E002067657365747A7400A8
:1002C00044656275672D4C6576656C2061756620A6
:1002D00000556E6775656C74696765722057657245
:1002E000742066C3BC72204E657874696F6E3A20C4
:1002F0004E757220276F6E27206F64657220276FFE
:100300006666272065726C61756274004E6578744C
:10031000696F6E206465616B7469766965727400DB
:100320004E657874696F6E20616B74697669657269
:10033000740048616E646C65536574436F6D6D61E4
:100340006E64206D697420506172616D65746572B0
:100350003A20004E657874696F6E2069737420646A
:1003600065616B7469766965727400476573656E63
:1003700064657420616E204E657874696F6E3A20F2
:100380000068656C70206765747C7365747C6E783A
:1003900074202D2044657461696C730068656C700D
:1003A000202D2044696573652048696C6665003DB1
:1003B0003D3D20534D4152544B49434B2048494CFD
:1003C0004645203D3D3D006E787420434F4D4D41E4
:1003D0004E44202D2053656E64657420616E204468
:1003E0006973706C6179003D3D3D204E58542D423B
:1003F000454645484C45203D3D3D00736574206EA3
:10040000657874696F6E206F6E7C6F6666007365C9
:100410007420646562756720307C317C32202D2029
:1004200044656275672D4C6576656C007365742054
:100430006E616D65317C6E616D6532205354524939
:100440004E47007365742073636F7265317C73630C
:100450006F72653220494E547C2B7C2D007365747D
:100460002073746172747C73746F707C72657365D1
:10047000740073657420676F616C7320494E54205B
:100480002D20546F7265207A756D20536965670061
:100490007365742074696D6520494E54202D204D7C
:1004A000696E7574656E00736574206D6F64652088
:1004B000667265657C74696D657C636C6173736974
:1004C00063003D3D3D205345542D42454645484C33
:1004D00045203D3D3D0067657420636F6E6669672A
:1004E00020202D205A65696774204B6F6E666967FE
:1004F00075726174696F6E20616E00676574207338
:10050000636F72652020202D205A6569677420531F
:100510007069656C7374616E6420616E003D3D3D71
:10052000204745542D42454645484C45203D3D3DDC
:1005300000506172616D657465723A2000426566B3
:1005400065686C737479703A200027005665726193
:100550007262656974652042656665686C3A202739
:10056000004E657874696F6E3A2000536D61727445
:100570004B69636B0056657261726265697465747C
:100580006520416E74776F72743A2000456D706615
:10059000616E67656E6520526F68646174656E3A5E
:1005A0002000556E656E74736368696564656E21BD
:1005B0000020676577696E6E742100206765776932
:1005C0006E6E7421000020004845583A20004569AD
:1005D0006E6761626520766F6E2053657269616C2B
:1005E0003A200000000000240027002A000000003C
:1005F00000250028002B0004040404040404040261
:1006000002020202020303030303030102040810AF
:10061000204080010204081020010204081020007C
:1006200000000800020100000304070000000000B1
:1006300000000000EA15051D11241FBECFEFD8E011
:10064000DEBFCDBF25E0A4E5B3E001C01D92A5311A
:10065000B207E1F713E0A0E0B1E0E6E7F0E402C0A2
:1006600005900D92A435B107D9F713E0CBE1D3E0A3
:1006700004C02197FE010E94221ECA31D107C9F78A
:100680000E9457160C942E200C9400008230C8F45F
:10069000E82FF0E0EE0FFF1FEA5EFE4F71836083EC
:1006A000813041F0809169008C7F82608093690085
:1006B000E89A089580916900837F8860809369003B
:1006C000E99A089590E0FC01E15EF94F2491FC0164
:1006D000E55FF94F3491FC01E950FA4FE491EE23C4
:1006E000C9F0222339F0233001F1A8F4213019F1A7
:1006F000223029F1F0E0EE0FFF1FE351FA4FA591F0
:10070000B4918FB7F894EC91611126C030953E23D7
:100710003C938FBF08952730A9F02830C9F02430CA
:1007200049F7809180008F7D03C0809180008F7792
:1007300080938000DFCF84B58F7784BDDBCF84B515
:100740008F7DFBCF8091B0008F778093B000D2CFA8
:100750008091B0008F7DF9CF3E2BDACFCF93DF931E
:1007600090E0FC01E55FF94F249189509A4FFC011C
:1007700084918823D1F090E0880F991FFC01ED51FE
:10078000FA4FA591B491FC01E351FA4FC591D49170
:10079000623071F49FB7F8943C91822F8095832347
:1007A0008C93E8812E2B28839FBFDF91CF910895F2
:1007B0008FB7F894EC912E2B2C938FBFF6CF1F930D
:1007C000CF93DF93182FEB0161E00E94AE032097D7
:1007D00039F460E0812FDF91CF911F910C94620377
:1007E000CF3FD10511F461E0F5CFE12FF0E0E15EFC
:1007F000F94FE491E33031F140F4E130B1F0E2300F
:10080000E1F0C038D1057CF7E4CFE73029F1E830DA
:1008100059F1E430B1F780918000806280938000CC
:10082000D0938B00C0938A0004C084B5806884BDD7
:10083000C7BDDF91CF911F91089584B5806284BDBB
:10084000C8BDF7CF80918000806880938000D093EE
:100850008900C0938800EDCF8091B00080688093BC
:10086000B000C093B300E5CF8091B0008062809368
:10087000B000C093B400DDCF0F931F93CF93DF93ED
:10088000062F142F682F70E0C1E0D5E088810E9408
:10089000DF03602F70E089810E94DF03612F70E029
:1008A0008A81DF91CF911F910F910C94DF03CF9339
:1008B000DF93C1E0D5E070E060E088810E94DF0353
:1008C00070E060E089810E94DF0370E060E0898170
:1008D0000E94DF0370E060E08A81DF91CF910C9489
:1008E000DF033FB7F8948091540490915504A09190
:1008F0005604B091570426B5A89B05C02F3F19F0A8
:100900000196A11DB11D3FBFBA2FA92F982F88278F
:10091000BC01CD01620F711D811D911D42E0660F6A
:10092000771F881F991F4A95D1F708958F929F923C
:10093000AF92BF92CF92DF92EF92FF926B017C0158
:100940000E9471044B015C01C114D104E104F10463
:10095000B9F00E947104681979098A099B09683EF7
:1009600073408105910580F321E0C21AD108E108A6
:10097000F10888EE880E83E0981EA11CB11CE4CF1C
:10098000FF90EF90DF90CF90BF90AF909F908F90AF
:1009900008959F92AF92BF92CF92DF92EF92FF9213
:1009A0000F931F93CF93DF935C01142F922ED0E00F
:1009B000C0E06B01770FEE08FF08402F692D812FF3
:1009C0000E943C04C701B6010E9496040E9457048D
:1009D000C701B6010E9496042196AC16BD0669F7C0
:1009E000DF91CF911F910F91FF90EF90DF90CF900B
:1009F000BF90AF909F9008952FB7F89460915004E6
:100A00007091510480915204909153042FBF089526
:100A100008950895DB0114964D915C9115976D91A1
:100A20007C91DC01ED91FC910280F381E02D099431
:100A3000AF92BF92CF92DF92EF92FF920F931F93EC
:100A4000CF93DF936C017B018B01040F151FEB012A
:100A50005E01AE18BF08C017D10759F06991D601E1
:100A6000ED91FC910190F081E02DC6010995892B53
:100A700079F7C501DF91CF911F910F91FF90EF9012
:100A8000DF90CF90BF90AF900895FC01538D448DBF
:100A9000252F30E0842F90E0821B930B541710F029
:100AA000CF96089501970895FC01918D828D981736
:100AB00061F0A28DAE0FBF2FB11D5D968C91928D0E
:100AC0009F5F9F73928F90E008958FEF9FEF08953F
:100AD000FC01918D828D981731F0828DE80FF11D08
:100AE000858D90E008958FEF9FEF0895FC01918D23
:100AF000228D892F90E0805C9F4F821B91098F731C
:100B00009927089588E594E00E94760521E0892BD5
:100B100009F420E0822F089580E090E0892B29F0ED
:100B20000E94820581110C9400000895FC01A48D9F
:100B3000A80FB92FB11DA35ABF4F2C91848D90E0FF
:100B400001968F739927848FA689B7892C93A089E2
:100B5000B1898C91837080648C93938D848D98136C
:100B600006C00288F389E02D80818F7D80830895FF
:100B7000EF92FF920F931F93CF93DF93EC0181E0ED
:100B8000888F9B8D8C8D98131AC0E889F989808194
:100B900085FF15C09FB7F894EE89FF896083E889C7
:100BA000F98980818370806480839FBF81E090E0B9
:100BB000DF91CF911F910F91FF90EF900895F62E46
:100BC0000B8D10E00F5F1F4F0F731127E02E8C8DE0
:100BD0008E110CC00FB607FCFACFE889F989808125
:100BE00085FFF5CFCE010E949605F1CFEB8DEC0F7E
:100BF000FD2FF11DE35AFF4FF0829FB7F8940B8F42
:100C0000EA89FB8980818062CFCF0F931F93CF93B6
:100C1000DF938C01D0E0C0E0F801EC0FFD1F649180
:100C2000662341F088E594E00E94B805892B11F015
:100C30002196F2CFCE01DF91CF911F910F910895B0
:100C4000CF93DF93EC01888D8823B9F0AA89BB8903
:100C5000E889F9898C9185FD03C0808186FD0DC0EE
:100C60000FB607FCF7CF8C9185FFF2CF808185FF0F
:100C7000EDCFCE010E949605E9CFDF91CF91089587
:100C80005091040440910304852F90E0242F30E01C
:100C9000541718F0821B930B0895805B9F4FFACF77
:100CA00080910404E09103048E1751F0EF5FE0356A
:100CB00008F0E0E0F0E0E055FC4F808190E008951E
:100CC0008FEF9FEF0895809104049091030489179A
:100CD00069F09F5F903508F090E0E92FF0E0E05573
:100CE000FC4F80819093030490E008958FEF9FEF75
:100CF0000895909101049F5F943408F090E0209152
:100D000000042917E1F32FB7F8943091020433233C
:100D100049F0E92FF0E0EA59FC4F808390930104F9
:100D20002FBF089591E0909302048093AB0310923B
:100D3000AA0382E086BB80916F00826080936F007F
:100D4000809180008F7B80688093800080918400F8
:100D50009091850040969093890080938800E0CF21
:100D60000F931F930E94FC040091470410914804C4
:100D70002091490430914A04601B710B820B930B44
:100D800028EE33E040E050E00E94001ECA01B901A5
:100D90001F910F910895CF92DF92EF92FF920F93E0
:100DA0001F938091430490914404A0914504B09115
:100DB00046040197A105B10579F460914B04709147
:100DC0004C0480914D0490914E041F910F91FF901F
:100DD000EF90DF90CF90089580911301813021F042
:100DE00060E070E0CB01F1CF809112018130C1F45D
:100DF0000E94B00600914B0410914C0420914D04C8
:100E000030914E04601771078207930748F7680115
:100E10007901C61AD70AE80AF90AC701B601D5CF7F
:100E20001F910F91FF90EF90DF90CF900C94B00640
:100E30000E94FC0460934704709348048093490423
:100E400090934A04809112018150823090F48091F5
:100E500010012CE3829FC0011124092E000CAA0B63
:100E6000BB0B80934B0490934C04A0934D04B09320
:100E70004E040895CF92DF92EF92FF920F931F934B
:100E8000CF93DF93EC010E94FC04C880D980EA80F4
:100E9000FB80009108011091090120910A01309115
:100EA0000B016C197D098E099F0906171707280782
:100EB000390780F40E94FC04688379838A839B83CA
:100EC00081E0DF91CF911F910F91FF90EF90DF9024
:100ED000CF90089580E0F5CF0F938091130181307A
:100EE000D1F580E091E00E943A078823A1F180913A
:100EF000430490914404A0914504B0914604892B89
:100F00008A2B8B2B41F58091370490913804A09166
:100F10003904B0913A040196A11DB11D80933704A4
:100F200090933804A0933904B0933A040FEF20E073
:100F300040E064EF71E081E090E00E94C90481E04C
:100F400090E0A0E0B0E080930C0190930D01A0939D
:100F50000E01B0930F010F9108950F93809113012B
:100F60008130D1F584E091E00E943A078823A1F115
:100F70008091430490914404A0914504B0914604AB
:100F8000892B8A2B8B2B41F580913B0490913C045B
:100F9000A0913D04B0913E040196A11DB11D809326
:100FA0003B0490933C04A0933D04B0933E0400E0C6
:100FB0002FEF4FEF64EF71E081E090E00E94C904F1
:100FC00081E090E0A0E0B0E080930C0190930D01EF
:100FD000A0930E01B0930F010F9108958091020428
:100FE0008111FCCF0895862F0E94790681E090E060
:100FF000089590E080E00895FC0101900020E9F759
:101000003197AF01481B590BBC0188E594E00C9463
:101010001805CF93DF930E940506EC018AE691E064
:101020000E94FC078C0F9D1FDF91CF9108951092B5
:10103000130181E090E0A0E0B0E08093430490933E
:101040004404A0934504B09346048091150188237D
:1010500021F08CEB91E00C9409080895CF93DF9375
:10106000BC0188E594E00E940A05EC018AE691E063
:101070000E94FC078C0F9D1FDF91CF910895CF93A5
:10108000DF93EC0180911501823038F081E695E024
:101090000E940506CE010E942E088091140188232B
:1010A00081F0BE0185EF94E00E940A058FEF0E9457
:1010B00079068FEF0E9479068FEFDF91CF910C9424
:1010C0007906DF91CF9108958F929F92AF92BF9250
:1010D0000F931F93CF93DF93CDB7DEB7A1970FB6D2
:1010E000F894DEBF0FBECDBF19A2423008F44AE02B
:1010F0008E010F5D1F4F842E912CB12CA12CA501C8
:1011000094010E94001EE62FB901CA01EA30F4F4EE
:10111000E05DD801EE938D01232B242B252B79F74D
:1011200090E080E0109719F0CD010E94FC07A19695
:101130000FB6F894DEBF0FBECDBFDF91CF911F91E8
:101140000F91BF90AF909F908F900895E95CE1CF91
:10115000CF92DF92EF92FF92CF93DF936B017C01EE
:101160006DE288E594E00E94B805EC0166277727D8
:10117000CB016C197D098E099F094AE00E94640821
:101180008C0F9D1FDF91CF91FF90EF90DF90CF905C
:101190000895BC01990F880B990B97FD0C94A80832
:1011A0004AE00C946408CF93DF934AE00E946408FD
:1011B000EC018AE691E00E94FC078C0F9D1FDF91F5
:1011C000CF91089581E891E00E94090884E791E0B9
:1011D0000E94050680911201813009F453C050F03D
:1011E000823009F452C080911501823038F081E4D8
:1011F00091E002C087E691E00E94090885E391E052
:101200000E9405066091100170E090E080E04AE0E5
:101210000E9464088CE291E00E9409088CE191E050
:101220000E9405066091110170E090E080E04AE0C4
:101230000E9464088AE691E00E94FC078EE091E03B
:101240000E9405066091150170E090E080E04AE0A0
:101250000E9464088AE691E00E94FC078CEF90E00F
:101260000E94050680911401811112C08DE691E063
:101270000E94FC078AE691E00E94FC0788EE90E05D
:101280000C9409088DE591E0B7CF8BE491E0B4CFE1
:1012900089E791E0EDCFFC0180819181009711F009
:1012A0000C942A1D60E070E0CB010895AF92BF92CC
:1012B000CF92DF92EF92FF920F931F93CF93DF9322
:1012C000DC01CD90DC901197C114D10439F0149653
:1012D000CD91DC918C017601209761F4DF91CF9163
:1012E0001F910F91FF90EF90DF90CF90BF90AF9044
:1012F000089575015701BFEFAB1ABB0AF701808152
:10130000082E000C990B0E94AD1D892B91F7219797
:10131000CC0DDD1D8881082E000C990B0E94AD1D9F
:10132000892B29F0CE15DF0510F02197F3CFAE0100
:101330004F5F5F4F4E195F09D80115965C934E932E
:101340001497CE14DF0420F4B701C6010E940A20CE
:10135000D801ED91FC91119714968D919C91E80F15
:10136000F91F1082BBCFFC0124813581FB01448130
:10137000558124173507A0F0FC01808191810097E9
:1013800079F0FB01608171816115710549F0241BC1
:10139000350B820F931F0E941E2021E0892B09F03C
:1013A00020E0822F0895FC0124813581232B31F424
:1013B00021E0FB01672B49F4822F08958081918100
:1013C0006115710539F421E0FC0180818823A1F3C6
:1013D00020E0F2CF0E941E2021E0892B69F3F8CF94
:1013E000FC0124813581FB01448155812417350797
:1013F000E1F4FC0180819181FB01608171810097A2
:10140000D1F061157105A1F4232BC1F0FC0180819D
:1014100090E008C0232B91F0FB01808190E0919532
:101420008195910921E0892B09F020E0822F089510
:101430000E941E20F7CF6115710561F721E0F6CFFC
:101440000F931F93CF93DF938C01EB01FC018081FD
:1014500091810097E1F06881798161157105A9F0AA
:10146000428153812C813D814217530770F00E94C5
:1014700027208C819D81F801958384831D821C82A5
:10148000DF91CF911F910F9108950E94C41E888112
:101490009981F801918380838A819B8193838283E0
:1014A0008C819D8195838483198218821B821A8284
:1014B000E5CFCF93DF93EC0188819981009711F0FC
:1014C0000E94C41E198218821D821C821B821A82ED
:1014D000DF91CF910895FC0180819181009711F0F7
:1014E0000C94C41E08950F931F93CF93DF93EC01C8
:1014F00088819981009759F02A813B812617370707
:1015000030F081E0DF91CF911F910F9108958B0111
:101510006F5F7F4F0E944D1F009759F0998388831A
:101520001B830A832C813D81232B59F7FC011082F8
:10153000E8CF80E0E7CFEF92FF920F931F93CF9316
:10154000DF936115710541F480E0DF91CF911F9128
:101550000F91FF90EF90089541155105B1F07B0177
:10156000EC010C811D81040F151FB8010E94730A44
:10157000882351F3288139818C819D81B701820FA5
:10158000931F0E9427201D830C8381E0DECFEF9202
:10159000FF920F931F93CF93DF9300D000D0CDB76E
:1015A000DEB77C01862F4AE08E010F5F1F4FB80126
:1015B00090E00E94511DF80101900020E9F7319759
:1015C000AF01401B510BB801C7010E949B0A81115A
:1015D00003C0C7010E94590AC7010F900F900F90D6
:1015E0000F90DF91CF911F910F91FF90EF90089591
:1015F000CF93DF93EC01FB0101900020E9F73197D5
:10160000AF01461B570B0E949B0A811103C0CE01FC
:101610000E94590ACE01DF91CF910895CF93DF93B5
:10162000EC01FB0144815581608171810E949B0A1C
:10163000811103C0CE010E94590ACE01DF91CF91E2
:101640000895EF92FF920F931F93CF93DF93EC01D6
:101650007B018A01BA010E94730A81110BC0CE017D
:101660000E94590ACE01DF91CF911F910F91FF90F7
:10167000EF9008951D830C83B701888199810E94A2
:101680002720F0CFFB0101900020E9F73197AF014F
:10169000461B570B0C94210B0F931F93CF93DF9393
:1016A000CDB7DEB7A1970FB6F894DEBF0FBECDBFA2
:1016B0008C01CB01BA01F8011182108213821282CF
:1016C000158214822AE0AE014F5F5F4F0E94711DA8
:1016D000BE016F5F7F4FC8010E94420BA1960FB6FB
:1016E000F894DEBF0FBECDBFDF91CF911F910F9158
:1016F00008950F931F93CF93DF93CDB7DEB729974C
:101700000FB6F894DEBF0FBECDBF8C01862FF80157
:1017100011821082138212821582148240E1BE016E
:101720006F5F7F4F90E00E94931DBE016F5F7F4F00
:10173000C8010E94420B29960FB6F894DEBF0FBE77
:10174000CDBFDF91CF911F910F910895CF93DF937C
:10175000EC01FB018617970749F0608171816115E3
:10176000710541F0448155810E94210BCE01DF912A
:10177000CF9108950E94590AF9CFFC01118210827D
:1017800013821282158214820C94A60BFC01118222
:10179000108213821282158214826115710551F034
:1017A000FB0101900020E9F73197AF01461B570B71
:1017B0000C94210B0895AF92BF92CF92DF92EF92DB
:1017C000FF920F931F93CF93DF936C015B017A011C
:1017D00089012417350720F48F2D7901042F182F44
:1017E0006CE671E0C6010E94C60BD5011496CD913E
:1017F000DC91EC16FD06E0F40C171D0708F4E80177
:10180000D501ED91FC911197EC0FFD1F1081108215
:101810006D917C916E0D7F1DC60161157105A1F062
:101820000E94420BF50180819181C80FD91F188356
:10183000C601DF91CF911F910F91FF90EF90DF9044
:10184000CF90BF90AF9008950E94590AEBCFCF93ED
:10185000DF93CDB7DEB72C970FB6F894DEBF0FBE7F
:10186000CDBF1092370410923804109239041092B0
:101870003A0410923B0410923C0410923D041092E2
:101880003E0410923F0410924004109241041092C2
:1018900042041092430410924404109245041092A2
:1018A000460482E0809313010E9457048091150141
:1018B000882321F087E991E00E94090863E871E03C
:1018C000CE0101960E94C60BBE016F5F7F4FCE0115
:1018D00007960E94BD0B6AE871E0CE0107960E9450
:1018E000F80A0E943F08CE0107960E946B0ACE01BB
:1018F00001960E946B0A2C960FB6F894DEBF0FBEBD
:10190000CDBFDF91CF9108958F929F92AF92BF92FA
:10191000CF92DF92EF92FF921F93CF93DF93CDB7D9
:10192000DEB768970FB6F894DEBF0FBECDBF8091CB
:101930005E03811109C06CE671E088E593E00E94C6
:10194000C60B81E080935E0340913B0450913C04C0
:1019500060913D0470913E04CE010D960E944C0BA7
:1019600040913704509138046091390470913A04E1
:10197000CE0101960E944C0BBE016F5F7F4FCE01DE
:1019800007960E94BD0B67E971E0CE0107960E94A1
:10199000F80ABE01635F7F4F0E940E0BBC01CE01AF
:1019A00043960E94BD0BCE0107960E946B0ACE01A2
:1019B00001960E946B0ACE010D960E946B0A0E944E
:1019C000CB066B017C0168E573E0CE0143960E9473
:1019D000F0098823D1F08091540390915503A09190
:1019E0005603B09157038C159D05AE05BF0569F4EC
:1019F00080910C0190910D01A0910E01B0910F0109
:101A00000197A105B10509F0ABC0809115018823AC
:101A100021F085ED90E00E9409088091150188234E
:101A200031F065E075E088E594E00E940A05809158
:101A30001501882371F082ED90E00E940506609107
:101A40003704709138048091390490913A040E94CF
:101A5000D30880911501882331F06BE075E088E5AB
:101A600094E00E940A0580911501882371F08FECA3
:101A700090E00E94050660913B0470913C048091C7
:101A80003D0490913E040E94D3081091150111234A
:101A900021F087EC90E00E940506809112018130D0
:101AA00009F474C040F0823009F478C0123038F084
:101AB00084E990E070C08AEB90E011116CC08091D5
:101AC000150190911201913009F06EC0882389F0C0
:101AD00080E890E00E940506C701B6012CE330E0E3
:101AE00040E050E00E94001ECA01B9014AE00E9495
:101AF0006408809115018823E1F0C701B6012CE349
:101B000030E040E050E00E94001E4B015C018AE69C
:101B100090E00E9405068AE088169104A104B104B1
:101B200020F488E690E00E940506C501B4010E94F9
:101B3000D308BE016D5E7F4F88E593E00E94A60B3F
:101B4000C0925403D0925503E0925603F09257038B
:101B500010920C0110920D0110920E0110920F01C3
:101B6000CE0143960E946B0A68960FB6F894DEBFCA
:101B70000FBECDBFDF91CF911F91FF90EF90DF900F
:101B8000CF90BF90AF909F908F90089580EB90E0A2
:101B9000112309F494CF0E94090891CF8EE990E0B7
:101BA000112309F48CCFF7CF882309F4A2CF8CE658
:101BB00090E090CF0F931F93CF93DF93CDB7DEB715
:101BC00062970FB6F894DEBF0FBECDBF0E94270C00
:101BD00081E0809313010E941807809114018823EB
:101BE00009F4F7C069E971E0CE0101960E94C60BC5
:101BF000BE016F5F7F4FCE0107960E94BD0B60EA6A
:101C000071E0CE0107960E94F80A65E075E00E9437
:101C10000E0B6EED71E00E94F80A0E943F08CE01A3
:101C200007960E946B0ACE0101960E946B0A63EA36
:101C300071E0CE0101960E94C60BBE016F5F7F4F1F
:101C4000CE0107960E94BD0B60EA71E0CE010796B7
:101C50000E94F80A6BE075E00E940E0B6EED71E0D9
:101C60000E94F80A0E943F08CE0107960E946B0A64
:101C7000CE0101960E946B0A6CE671E0CE010D96D2
:101C80000E94C60B8091120163EB71E0813051F02C
:101C90006AEA71E0813030F06CEB71E0823011F073
:101CA00068EC71E0CE010D960E94420B6CEB71E086
:101CB000CE010D960E94D309882309F4A6C0109185
:101CC000110160EA71E0CE0107960E94C60B60ED3B
:101CD00071E0CE0101960E94C60BBE01695F7F4F85
:101CE000CE0101960E940E0BBE01635F7F4F0E94E2
:101CF0000E0B67ED71E00E94F80A612F0E94C70A7F
:101D00006BED71E00E94F80A0E943F08CE01019637
:101D10000E946B0ACE0107960E946B0A60EE71E08A
:101D2000CE0101960E94C60BBE016F5F7F4FCE01B0
:101D300007960E94BD0B67EE71E0CE0107960E94E8
:101D4000F80A0E943F08CE0107960E946B0ACE0156
:101D500001960E946B0A6AEE71E0CE0101960E9424
:101D6000C60BBE016F5F7F4FCE0107960E94BD0B71
:101D700067EE71E0CE0107960E94F80A0E943F08C4
:101D8000CE0107960E946B0ACE0101960E946B0A53
:101D900061EF71E0CE0101960E94C60BBE016F5F3C
:101DA0007F4FCE0107960E94BD0B68EF71E0CE0118
:101DB00007960E94F80A0E943F08CE0107960E94EB
:101DC0006B0ACE0101960E946B0ACE010D960E940D
:101DD0006B0A80911501882321F08CEA91E00E9422
:101DE000090800E02FEF40E06AEF70E082E090E049
:101DF0000E94C90462960FB6F894DEBF0FBECDBF35
:101E0000DF91CF911F910F91089560ED71E0CE01A8
:101E100001960E94C60BBE016F5F7F4FCE010796F1
:101E20000E94BD0B60EA71E0CE0107960E94F80A9D
:101E3000BE01635F7F4F0E940E0B6EED71E00E944A
:101E4000F80A0E943F08CE0107960E946B0ACE0155
:101E5000019662CFCF92DF92EF92FF920F931F9382
:101E6000CF93DF93CDB7DEB7AA970FB6F894DEBF56
:101E70000FBECDBF7C010E945609809115018230B2
:101E800048F08CE495E00E940506B70188E594E0EF
:101E90000E940A0580911501823020F08AE495E0C5
:101EA0000E940908F70184819581892B09F46FC08C
:101EB0000081118160E270E0C8010E941320009748
:101EC00009F465C09C01201B310B89016CE671E0AF
:101ED000CE014F960E94C60B6CE671E0CE0185964E
:101EE0000E94C60B0F3F100709F054C0B701CE0186
:101EF0004F960E94A60B6CE671E0CE0185960E947B
:101F0000420B80911501823040F08DE395E00E94F4
:101F10000506CE014F960E942E0880911501823051
:101F200040F081E395E00E940506CE0185960E946F
:101F30002E083EE3E32E31E0F32E10E000E0F7013F
:101F4000619171917F01CE014F960E94D309811159
:101F50004BC00F5F1F4F0430110589F780911501A9
:101F6000823008F48FC165E872E0CE0101960E94CC
:101F7000C60BBE01615E7F4FCE0101960E940E0B23
:101F80000E942E08CE0101960E946B0A7BC10FEFC2
:101F90001FEF9CCF980150E040E0B701CE010196C1
:101FA0000E94DB0BBE016F5F7F4FCE014F960E94F8
:101FB000200ACE0101960E946B0AF7012481358127
:101FC000A8014F5F5F4FB701CE0101960E94DB0B66
:101FD000BE016F5F7F4FCE0185960E94200ACE0121
:101FE00001960E946B0A8DCFBE016B5D7F4FCE01C3
:101FF0000230110509F4FFC20330110509F418C3BA
:102000000130110509F440C001960E94BD0B80917A
:102010001501823040F084EE91E00E940506CE0169
:1020200001960E942E0861E072E0CE0101960E94A6
:10203000D30981111AC067E072E0CE0101960E94B7
:10204000D30981110DC080911501882359F08BECC3
:1020500091E00E940506CE0101960E942E0802C062
:102060000E94E208CE0101960BC181E090E0A0E061
:10207000B0E080930C0190930D01A0930E01B093FA
:102080000F010E94840CEECF49960E94BD0B8091F7
:102090001501823040F082E393E00E940506CE01F4
:1020A00049960E942E088D8D9E8D892B09F498C02B
:1020B000098D1A8D60E270E0C8010E94132000971C
:1020C00009F48EC09C01201B310B89016CE671E084
:1020D000CE0143960E94C60B6CE671E0CE010D96D0
:1020E0000E94C60B0F3F100709F47DC0980150E015
:1020F00040E0BE01675E7F4FCE0101960E94DB0B80
:10210000BE016F5F7F4FCE0143960E94200ACE0131
:1021100001960E946B0A2D8D3E8DA8014F5F5F4F87
:10212000BE01675E7F4FCE0101960E94DB0BBE01B0
:102130006F5F7F4FCE010D960E94200ACE0101965F
:102140000E946B0A80911501823020F084E792E0B2
:102150000E94FC0780911501823020F0CE01439649
:102160000E942E0880911501823020F08EE092E0CE
:102170000E94FC0780911501823020F0CE010D965F
:102180000E942E0806E211E0F12CE12CF801619189
:1021900071918F01CE0143960E94D309811131C004
:1021A000FFEFEF1AFF0A2CE0E216F10479F78091B5
:1021B0001501882309F45AC064E672E0CE01019645
:1021C0000E94C60BBE016D5E7F4FCE0101960E943C
:1021D0000E0B0E942E08CE0101960E946B0A46C08B
:1021E0000FEF1FEF73CFBE01675E7F4FCE014396A7
:1021F0000E94A60B6CE671E0CE010D960E94420B88
:10220000A1CFF7013197EB30F10578F4E65FFE4E90
:102210000C94221E7611AA11D811DB11DE11E111E6
:10222000E1116A126A12A212D612BE01635F7F4FD9
:10223000CE0107960E94BD0B20E2E22E21E0F22E95
:1022400010E000E0F701619171917F01CE010796E6
:102250000E94D309882369F1009312010E94E208C9
:102260000E94DA0DCE0107960E946B0ACE010D96F0
:102270000E946B0ACE0143960E946B0ACE014996DA
:102280000E946B0ACE0185960E946B0ACE014F9682
:102290000E946B0AAA960FB6F894DEBF0FBECDBFA0
:1022A000DF91CF911F910F91FF90EF90DF90CF9032
:1022B00008950F5F1F4F0330110521F6809115011E
:1022C000882381F265E172E0CE0101960E94C60B7F
:1022D000BE01695F7F4FCE0101960E940E0B0E94E6
:1022E0002E08CE0101960E946B0ABCCFBE01635F2F
:1022F0007F4FCE0101960E94BD0BCE0101960E9438
:102300004B09162F072F609310010E941807809128
:102310001501882341F086E192E00E940506812F95
:10232000902F0E94C90880911501882321F085E033
:1023300092E00E94090881E090E0A0E0B0E0809384
:102340000C0190930D01A0930E01B0930F01CE01EB
:1023500001968ACFBE01635F7F4FCE0101960E9436
:10236000BD0BCE0101960E944B09162F072F6093DB
:10237000110180911501882321F08EE292E00E94E4
:10238000FC0780911501882311F3612F702F072E10
:10239000000C880B990B97FF07C00E94A8088AE6DB
:1023A00091E00E94FC07D3CF4AE00E946408F7CF77
:1023B0000E94DA0D5BCF0E94170858CF0E94270CAD
:1023C00055CFBE01635F7F4FCE0101960E94BD0BCA
:1023D0008091430490914404A0914504B091460437
:1023E0000197A105B10509F4B2CF61E472E0CE0115
:1023F00001960E94D309870106501109000F111F91
:10240000000F111F8823D1F1F801E95CFB4F808197
:102410009181A281B38183369105A105B10538F47C
:102420000196A11DB11D80839183A283B383809106
:102430001501882321F085E492E00E94FC07809139
:102440001501882321F0C70105970E94C9088091D2
:102450001501882321F08BE392E00E94FC07809114
:102460001501882309F467CFF801E95CFB4F60810F
:102470007181828193810E94D3085DCF63E472E011
:10248000CE0101960E94D309882379F0F801E95C16
:10249000FB4F80819181A281B3810097A105B10595
:1024A00031F20197A109B109BECFCE0101960E9478
:1024B0004B096436710514F063E670E0F801E95CDD
:1024C000FB4F77FF02C070E060E0CB01770FAA0BF3
:1024D000BB0BA9CFBE01635F7F4FCE0101960E9467
:1024E000BD0BC701089726E0289F8001299F100D8A
:1024F00011240B5F1A4FBE016F5F7F4FC8010E940E
:10250000A60B80911501882321F086E592E00E94B8
:10251000FC0780911501882321F0C70107970E94CD
:10252000C90880911501882321F08BE392E00E9475
:10253000FC0780911501882309F409CFC8010E9486
:102540002E0805CFBE01635F7F4FCE0101960E942A
:10255000BD0BCE0101960E944B096B0163307105E2
:1025600010F58B016093150180EC92E00E94050646
:10257000C6010E94C90887EB92E00E940908013059
:10258000110559F00230110559F08BE992E0CD2880
:1025900009F0DDCE0E940908DACE8BE792E0FACF8F
:1025A00086E592E0F7CF85E292E0F4CFBE01635F6B
:1025B0007F4FCE0101960E94BD0B6CE473E0CE010B
:1025C00001960E94D309882331F081E080931401A1
:1025D00080E293E0DFCF60E672E0CE0101960E94D8
:1025E000D309882329F0109214018CE093E0D2CF14
:1025F00081ED92E0CFCF01960E94BD0B8091140136
:10260000882361F0CE0101960E943F088091150158
:10261000882309F427CD8BE693E01BCD809115012B
:10262000882309F41FCD83E593E00E9409081ACDA1
:1026300001960E94BD0B6DE772E0CE0101960E94EB
:10264000D309882359F08DE195E00E9409088BEFAA
:1026500094E00E94090886ED94E0E7CF63E273E01E
:10266000CE0101960E94D309882319F182EC94E0EF
:102670000E94090887EA94E00E94090880E994E032
:102680000E94090882E794E00E9409088DE594E021
:102690000E94090883E494E00E9409088CE294E017
:1026A0000E9409088EE094E00E9409088BEF93E0F5
:1026B000BCCF61E872E0CE0101960E94D309882365
:1026C00039F087EE93E00E94090887EC93E0ADCFE4
:1026D0008FEA93E00E9409088CE993E00E940908C0
:1026E00081E893E0A2CF1F920F920FB60F921124B0
:1026F0002F933F938F939F93AF93BF9380915004F9
:1027000090915104A0915204B091530430914F0420
:1027100023E0230F2D3758F50196A11DB11D2093FD
:102720004F048093500490935104A0935204B093AB
:1027300053048091540490915504A0915604B09193
:1027400057040196A11DB11D809354049093550424
:10275000A0935604B0935704BF91AF919F918F916E
:102760003F912F910F900FBE0F901F90189526E864
:10277000230F0296A11DB11DD2CF1F920F920FB64B
:102780000F9211242F933F934F935F936F937F93F7
:102790008F939F93AF93BF93EF93FF93E0911801B3
:1027A000F09119010995FF91EF91BF91AF919F9120
:1027B0008F917F916F915F914F913F912F910F90EA
:1027C0000FBE0F901F9018951F920F920FB60F9289
:1027D00011242F933F934F935F936F937F938F9326
:1027E0009F93AF93BF93EF93FF93E0911601F09106
:1027F00017010995FF91EF91BF91AF919F918F9133
:102800007F916F915F914F913F912F910F900FBEEC
:102810000F901F9018951F920F920FB60F921124D0
:102820002F933F934F935F936F937F938F939F93D8
:10283000AF93BF93EF93FF9388E594E00E949605D2
:10284000FF91EF91BF91AF919F918F917F916F9188
:102850005F914F913F912F910F900FBE0F901F905E
:1028600018951F920F920FB60F9211242F938F93EA
:102870009F93EF93FF93E0916804F0916904808146
:10288000E0916E04F0916F0482FD1BC090818091F5
:1028900071048F5F8F7320917204821741F0E09171
:1028A0007104F0E0E85AFB4F958F80937104FF911B
:1028B000EF919F918F912F910F900FBE0F901F90CE
:1028C00018958081F4CF1F920F920FB60F921124AA
:1028D0002F938F939F93EF93FF9380916F008B7F44
:1028E00080936F00809181008F7B80938100809125
:1028F00005042091AF0320589091AE03893020F455
:102900009695922B8F5FFACF9093AE03809104043B
:102910008F5F803508F080E020910304281739F09C
:10292000E82FF0E0E055FC4F908380930404109270
:102930000504809181008F7B809381001092AF030A
:10294000FF91EF919F918F912F910F900FBE0F905C
:102950001F9018951F920F920FB60F9211242F936C
:102960003F934F935F936F937F938F939F93AF9317
:10297000BF93EF93FF9380918600909187004091E1
:10298000AF03209181004423F1F12F7B209381003C
:102990001092AF033091050431113CC0411122C0A7
:1029A0002091060430910704280F391F30938B00C3
:1029B00020938A0024E026BB20916F00246020939E
:1029C0006F002091080430910904820F931F3695FF
:1029D0002795280F391F3093AD032093AC0381E076
:1029E00080930504FF91EF91BF91AF919F918F91DB
:1029F0007F916F915F914F913F912F910F900FBEFB
:102A00000F901F90189520642093810020E8209358
:102A1000AF03C0CF4091AC035091AD036091080467
:102A200070910904DB01A095B095E091AF0320916E
:102A3000AE03841B950BA817B90768F126952E2BBA
:102A4000460F571F3F5F861B970B3930A0F320932B
:102A5000AE0380916F008B7F80936F0080910404A0
:102A60008F5F803508F080E090910304981749F05B
:102A7000E82FF0E09091AE03E055FC4F90838093F7
:102A80000404809181008F7B809381001092AF03BA
:102A900010920504A7CF2093AE035093AD0340934B
:102AA000AC03309305049ECF1F920F920FB60F9286
:102AB00011242F933F934F935F936F937F938F9343
:102AC0009F93EF93FF93209102046091AB03809159
:102AD0008800909189004091080450910904309138
:102AE000AA032A3070F5840F951F762F7170293054
:102AF00009F471E066952F5F371799F330918000E4
:102B00007723E1F0306C30938000909389008093BC
:102B100088007093AA036093AB0320930204FF9193
:102B2000EF919F918F917F916F915F914F913F9125
:102B30002F910F900FBE0F901F9018953F7B30681C
:102B4000E2CF30910104E09100043E1319C02A3015
:102B500051F42BE020930204840F951F9093890079
:102B600080938800DCCF10920204809180008F73E4
:102B70008093800080916F008D7F80936F00CFCF16
:102B8000EF5FE43408F0E0E0E0930004F0E0EA599D
:102B9000FC4F30813093AB031092AA033091800038
:102BA0003F7B3068309380002A3071F42091080414
:102BB00030910904820F931F9093890080938800BD
:102BC00081E080930204ABCF8091840090918500D6
:102BD0004096F2CFCF92DF92EF92FF92E8E5F4E0D9
:102BE0001382128288EEC82E83E0D82EE12CF12CBD
:102BF000C482D582E682F7828AE491E09183808361
:102C000085EC90E09587848784EC90E097878687B1
:102C100080EC90E0918B808B81EC90E0938B828BA9
:102C200082EC90E0958B848B86EC90E0978B868B82
:102C3000118E128E138E148E6EE972E085E095E08F
:102C40000E94C60B68EA72E08BE095E00E94C60B1A
:102C5000E1E0F5E084E0808385E0818386E08283A3
:102C600087E0838361E084E00E94AE0361E085E059
:102C70000E94AE0361E086E00E94AE0361E087E05F
:102C80000E94AE0360E087E00E946203E5EFF4E09B
:102C900013821282C482D582E682F7828CE591E0AB
:102CA00091838083FF90EF90DF90CF900895CF9332
:102CB000DF93CDB7DEB768970FB6F894DEBF0FBECF
:102CC000CDBF789484B5826084BD84B5816084BDB5
:102CD00085B5826085BD85B5816085BD80916E00BA
:102CE000816080936E0010928100809181008260EB
:102CF0008093810080918100816080938100809128
:102D000080008160809380008091B1008460809316
:102D1000B1008091B00081608093B00080917A0012
:102D2000846080937A0080917A00826080937A0038
:102D300080917A00816080937A0080917A00806827
:102D400080937A001092C100E0916804F0916904C8
:102D500082E08083E0916404F09165041082E09148
:102D60006604F091670480E1808310927004E09122
:102D70006C04F0916D0486E08083E0916A04F09128
:102D80006B04808180618083E0916A04F0916B0420
:102D9000808188608083E0916A04F0916B04808177
:102DA00080688083E0916A04F0916B0480818F7D5C
:102DB000808380911501882321F08BE695E00E94A5
:102DC000090880911401882309F460C010926F00F3
:102DD0001092800081E88093810083E896E09093D0
:102DE0000904809308048BE39CE390930704809389
:102DF000060462E088E00E94AE0361E089E00E9480
:102E0000620361E089E00E94AE0310920504109213
:102E10000404109203041092020410920104109210
:102E2000000480E286BB80936F0064E670E080E07F
:102E300090E00E94960462EB72E0CE0101960E943F
:102E4000C60BCE0101960E943F08CE0101960E945A
:102E50006B0A63E871E0CE0107960E94C60BBE01C3
:102E6000695F7F4FCE0101960E94BD0B6AE871E059
:102E7000CE0101960E94F80A0E943F08CE010196F9
:102E80000E946B0ACE0107960E946B0A62E082E004
:102E90000E94AE0362E083E00E94AE036CE677E03E
:102EA00080E00E9446036DEA77E081E00E944603DD
:102EB000C12CD12C7601C39480E0282E80E0382EDE
:102EC00088E594E00E947605181619060CF093C068
:102ED00062E370E080E090E00E9496046CE671E0AE
:102EE000CE0107960E94C60B88E594E00E94760505
:102EF00018161906E4F488E594E00E9454058D3014
:102F000011F08A3041F42B853C85232B69F38D30F9
:102F100071F08A3061F089831A8241E050E0BE018D
:102F20006F5F7F4FCE0107960E949B0ADDCFCE01D7
:102F300007960E9456098B859C85892B09F457C0FA
:102F400080911501823040F08EEC95E00E940506DC
:102F5000CE0107960E942E0880911501823020F044
:102F600088EC95E00E94050610E000E080911501D4
:102F70002B853C850217130728F58230C0F08F811E
:102F8000988560E0009721F0800F911FDC016C9123
:102F9000CE0101960E94790BBE016F5F7F4F88E5DD
:102FA00094E00E940A05CE0101960E946B0A80916E
:102FB0001501823020F086EC95E00E9405060F5F37
:102FC0001F4FD4CF823020F085EC95E00E94090895
:102FD000BE01695F7F4FCE0101960E94BD0BCE01FD
:102FE00001960E942A0FCE0101960E946B0ACE0123
:102FF00007960E946B0A80911401882309F4D0C2BD
:1030000085EF94E00E944006181619060CF07BC06C
:103010006CE671E0CE0143960E94C60B6CE671E04F
:10302000CE010D960E94C60B0E94FC044B015C0170
:103030000E94FC04681979098A099B0964367105A4
:103040008105910508F446C38F89988D049708F48B
:10305000ABC38B899C89FC01009721F410920A0470
:10306000EAE0F4E0208127FD9FC3892B11F4109240
:103070000A04808184320CF097C369EB72E0CE01C0
:1030800001960E94C60BBE016F5F7F4FCE01439633
:103090000E94B309182FCE0101960E946B0A1123DA
:1030A00009F482C36CE671E0CE0107960E94C60B5C
:1030B000CE010D960E946B0ACE0143960E946B0AC8
:1030C00080911501823020F08DEB92E00E94FC0788
:1030D00080911501823020F0CE0107960E942E08C3
:1030E000BE01695F7F4FCE0101960E94BD0BCE01EC
:1030F00001960E942A0FCE0101960E946B0ACE0112
:1031000007960E946B0A80912F04811127C06CE6FC
:1031100071E08BE094E00E94C60B6CE671E081E107
:1031200094E00E94C60B6CE671E087E194E00E9497
:10313000C60B6CE671E08DE194E00E94C60B6CE674
:1031400071E083E294E00E94C60B6CE671E089E2D4
:1031500094E00E94C60BF1E0F0932F040E94CB068E
:1031600020911301213009F075C30091430410919F
:1031700044042091450430914604012B022B032B7B
:1031800009F068C32CE330E040E050E00E94001EEC
:1031900029013A014B015C01BC01A401CE01019659
:1031A0000E944C0B07EB12E08AE088169104A10400
:1031B000B10410F00CE611E0B301A201CE010D96AE
:1031C0000E944C0BBE01635F7F4FCE0107960E94A9
:1031D000BD0B67E971E0CE0107960E94F80AB801BD
:1031E0000E94F80ABE016F5F7F4F0E940E0BBC0168
:1031F000CE0143960E94BD0BCE0107960E946B0A3A
:10320000CE010D960E946B0ACE0101960E946B0AB8
:103210006BE074E0CE0143960E94F00981112DC04D
:1032200060EA71E0CE0101960E94C60B61EF71E089
:10323000CE0107960E94C60BBE016F5F7F4FCE0185
:1032400007960E940E0BBE016D5E7F4F0E940E0B13
:103250006EED71E00E94F80A0E943F08CE010796C9
:103260000E946B0ACE0101960E946B0ABE016D5E40
:103270007F4F8BE094E00E94A60BCE0143960E9404
:103280006B0A409137045091380460913904709171
:103290003A04CE0101960E944C0B61E174E0CE012C
:1032A00001960E94F009182FCE0101960E946B0A28
:1032B000111149C04091370450913804609139048C
:1032C00070913A04CE0101960E944C0B6AED72E0B7
:1032D000CE0107960E94C60B60EE71E0CE010D96FE
:1032E0000E94C60BBE01695F7F4FCE010D960E9402
:1032F0000E0BBE016F5F7F4F0E940E0B0E943F08B6
:10330000CE010D960E946B0ACE0107960E946B0AB1
:10331000CE0101960E946B0A409137045091380407
:103320006091390470913A04CE0101960E944C0BD1
:10333000BE016F5F7F4F81E194E00E94200ACE01C1
:1033400001960E946B0A40913B0450913C046091AD
:103350003D0470913E04CE0101960E944C0B67E142
:1033600074E0CE0101960E94F009182FCE0101965B
:103370000E946B0A111149C040913B0450913C04DA
:1033800060913D0470913E04CE0101960E944C0B69
:103390006AED72E0CE0107960E94C60B6AEE71E0FC
:1033A000CE010D960E94C60BBE01695F7F4FCE0114
:1033B0000D960E940E0BBE016F5F7F4F0E940E0B99
:1033C0000E943F08CE010D960E946B0ACE0107961F
:1033D0000E946B0ACE0101960E946B0A40913B0449
:1033E00050913C0460913D0470913E04CE010196E1
:1033F0000E944C0BBE016F5F7F4F87E194E00E94FB
:10340000200ACE0101960E946B0A6DE174E085E00E
:1034100095E00E94F00981112BC060EA71E0CE01B5
:1034200001960E94C60B69E971E0CE0107960E94E1
:10343000C60BBE016F5F7F4FCE0107960E940E0B39
:1034400065E075E00E940E0B6EED71E00E94F80AD7
:103450000E943F08CE0107960E946B0ACE0101969A
:103460000E946B0A65E075E08DE194E00E94A60B76
:1034700063E274E08BE095E00E94F00981112BC0BB
:1034800060EA71E0CE0101960E94C60B63EA71E02A
:10349000CE0107960E94C60BBE016F5F7F4FCE0123
:1034A00007960E940E0B6BE075E00E940E0B6EED0E
:1034B00071E00E94F80A0E943F08CE0107960E9420
:1034C0006B0ACE0101960E946B0A6BE075E083E205
:1034D00094E00E94A60B6CE671E0CE010D960E946E
:1034E000C60B8091120163EB71E0813051F06AEA02
:1034F00071E0813030F06CEB71E0823011F068ECFB
:1035000071E0CE010D960E94420B69E274E0CE019B
:103510000D960E94F00981113FC06CEB71E0CE0165
:103520000D960E94D309882309F4B0C110911101AE
:1035300060EA71E0CE0101960E94C60B60ED71E079
:10354000CE0107960E94C60BBE016F5F7F4FCE0172
:1035500007960E940E0BBE01635F7F4F0E940E0B09
:1035600067ED71E00E94F80A612F0E94C70A6BEDB7
:1035700071E00E94F80A0E943F08CE0107960E945F
:103580006B0ACE0101960E946B0ABE01635F7F4FFA
:1035900089E294E00E94A60BCE010D960E946B0A70
:1035A0000E94840C8091430490914404A0914504AE
:1035B000B09146040197A105B10509F47FC080913F
:1035C0001201813009F47DC1823009F493C18091E8
:1035D000430490914404A0914504B091460401979E
:1035E000A105B10509F06AC00E9417080E94B00643
:1035F00060934B0470934C0480934D0490934E045D
:1036000000913704109138042091390430913A0424
:1036100040913B0450913C0460913D0470913E0404
:1036200080911501401751076207730708F082C1A6
:10363000882331F065E075E088E594E00E940A0592
:1036400080911501882321F08BEB95E00E940908F9
:10365000C0923F04D0924004E0924104F0924204B0
:103660004FEF60E080E00E943C04809114018823C9
:1036700029F160ED71E0CE0101960E94C60BBE01FA
:103680006F5F7F4FCE0107960E94BD0B60EA71E02D
:10369000CE0107960E94F80A65E075E00E940E0BC5
:1036A0006CED72E00E94F80A0E943F08CE01079676
:1036B0000E946B0ACE0101960E946B0A211431040C
:1036C00009F4FECB0E948205882309F4F5CB0E9401
:1036D0000000F2CB85EF94E00E944006892B09F4AC
:1036E00051C00E94FC044B015C0185EF94E00E94F4
:1036F0006306182F89831A8241E050E0BE016F5F94
:103700007F4FCE0143960E949B0A612FCE01079600
:103710000E94790BBE01695F7F4FCE0101960E9426
:10372000BD0B6BE772E0CE0101960E94F80AFC0126
:103730004481558160817181CE010D960E949B0A62
:10374000CE0101960E946B0ACE0107960E946B0A79
:1037500069EB72E0CE0101960E94C60BBE016F5F5D
:103760007F4FCE0143960E94B309182FCE010196D8
:103770000E946B0A111168CC65E070E080E090E077
:103780000E9496040E94FC04681979098A099B0921
:10379000633371058105910508F44ACC8F89988DB2
:1037A000892B09F445CC50CC69EB72E0CE0101962F
:1037B0000E94C60BBE016F5F7F4FCE0143960E94F1
:1037C000B309182FCE0101960E946B0A1123C1F094
:1037D0002F89388D2350310950E040E0BE016D5EE5
:1037E0007F4FCE0101960E94DB0BBE016F5F7F4FC2
:1037F000CE0143960E94200ACE0101960E946B0AD8
:103800008F89988D892BC1F080911501823040F00D
:103810008CE895E00E940506CE010D960E942E08C8
:1038200080911501823040F085E795E00E94050601
:10383000CE0143960E942E0818861F821A8619868A
:103840001C861B86BE016D5E7F4FCE0107960E94CF
:10385000200A2ECC63ED72E0CE0101960E94C60BC9
:1038600061EF71E0CE0107960E94C60BBE016F5F4B
:103870007F4FCE0107960E940E0B0E943F08CE019B
:1038800007960E946B0ACE010196F9CC60EA71E0BE
:10389000CE0101960E94C60B60ED71E0CE01079645
:1038A0000E94C60BBE016F5F7F4FCE0107960E943C
:1038B0000E0BBE01635F7F4F0E940E0B6EED71E039
:1038C00058CE0E94B00600914B0410914C042091F8
:1038D0004D0430914E04601771078207930708F476
:1038E00076CEC0924304D0924404E0924504F09214
:1038F00046046DCE8091110190E0B0E0A0E04091CF
:103900003704509138046091390470913A04481793
:1039100059076A077B0728F740913B0450913C0404
:1039200060913D0470913E04481759076A077B0770
:10393000C0F64DCE0417150726073707E0F5882394
:1039400031F06BE075E088E594E00E940A05809113
:103950001501882321F081EB95E00E94090882E09F
:1039600090E0A0E0B0E080933F0490934004A093E7
:103970004104B093420440E06FEF8FEF0E943C049B
:1039800080911401882309F499CE60ED71E0CE0195
:1039900001960E94C60BBE016F5F7F4FCE01079656
:1039A0000E94BD0B60EA71E0CE0107960E94F80A02
:1039B0006BE075E073CE882321F082EA95E00E94E7
:1039C000090810923F041092400410924104109292
:1039D000420440E060E08FEF0E943C0480911401BB
:1039E000882309F46BCE60ED71E0CE0101960E9450
:1039F000C60BBE016F5F7F4FCE0107960E94BD0BC5
:103A000067EE72E0CE0107964DCE8CE591E0909383
:103A1000F6048093F50480916F008B7F80936F0094
:103A200080916F008F7D80936F008091030480935D
:103A30000404809102048111FCCF80916F008D7F7E
:103A400080936F008BE095E00E946B0A85E095E023
:103A50000C946B0A1F93FC0199278827BC01E894FA
:103A600011911032E9F3193010F01E30C8F31B32F7
:103A700051F01D3249F4689406C00E945C1D610F2C
:103A8000711D811D911D119110531A30B0F33EF438
:103A900090958095709561957F4F8F4F9F4F1F91A7
:103AA0000895BB274A3031F4992322F4BDE2909562
:103AB00081959F4F0C94941D592F482F372F262FF7
:103AC000660F771F881F991F660F771F881F991F22
:103AD000620F731F841F951F660F771F881F991F22
:103AE0000895BB27FA01A62F62177105810591057C
:103AF000330B30FB66F0AA27660F771F881F991FCC
:103B0000AA1FA21710F0A21B63953850A9F7A05D59
:103B1000AA3308F0A95DA19336F7B111B1931082D1
:103B2000CA010C94B61DBB27FB015527AA27880F95
:103B3000991FAA1FA41710F0A41B83955051B9F721
:103B4000A05DAA3308F0A95DA193009779F7B111A0
:103B5000B1931192CB010C94B61D91110C94C61D1A
:103B6000803219F089508550C8F70895DC01FC01B6
:103B7000672F71917723E1F7329704C07C916D93A1
:103B800070836291AE17BF07C8F3089599278827FD
:103B900008952F923F924F925F926F927F928F92F1
:103BA0009F92AF92BF92CF92DF92EF92FF920F93CC
:103BB0001F93CF93DF93CDB7DEB7CA1BDB0B0FB6D6
:103BC000F894DEBF0FBECDBF09942A883988488893
:103BD0005F846E847D848C849B84AA84B984C88429
:103BE000DF80EE80FD800C811B81AA81B981CE0F20
:103BF000D11D0FB6F894DEBF0FBECDBFED01089505
:103C0000A1E21A2EAA1BBB1BFD010DC0AA1FBB1FE0
:103C1000EE1FFF1FA217B307E407F50720F0A21B52
:103C2000B30BE40BF50B661F771F881F991F1A94BF
:103C300069F760957095809590959B01AC01BD01E9
:103C4000CF010895EE0FFF1F0590F491E02D099428
:103C50000F931F93CF93DF938230910510F482E08E
:103C600090E0E0911305F091140530E020E0B0E021
:103C7000A0E0309799F42115310509F44AC0281BBA
:103C8000390B24303105D8F58A819B816115710586
:103C900089F1FB0193838283FE0111C04081518130
:103CA0000281138148175907E0F04817590799F422
:103CB000109761F012960C93129713961C933296FC
:103CC000CF01DF91CF911F910F91089500931305BC
:103CD00010931405F4CF2115310551F04217530705
:103CE00038F0A901DB019A01BD01DF01F801C1CF64
:103CF000EF01F9CF9093140580931305CDCFFE010A
:103D0000E20FF31F81939193225031093983288365
:103D1000D7CF2091110530911205232B41F420912A
:103D20001C0130911D013093120520931105209143
:103D30001A0130911B012115310541F42DB73EB711
:103D400040911E0150911F01241B350BE09111057C
:103D5000F0911205E217F307A0F42E1B3F0B281772
:103D6000390778F0AC014E5F5F4F2417350748F0F4
:103D70004E0F5F1F5093120540931105819391934D
:103D80009FCFF0E0E0E09CCFCF93DF930097E9F086
:103D9000FC01329713821282A0911305B091140591
:103DA000ED0130E020E01097A1F420813181820FF5
:103DB000931F20911105309112052817390709F03A
:103DC00061C0F0931205E0931105DF91CF91089542
:103DD000EA01CE17DF07E8F54A815B819E014115B4
:103DE0005105B1F7E901FB83EA8349915991C40F69
:103DF000D51FEC17FD0761F4808191810296840F35
:103E0000951FE90199838883828193819B838A83AB
:103E1000F0E0E0E012968D919C9113970097B9F530
:103E20002D913C911197CD010296820F931F209105
:103E30001105309112052817390739F6309751F5D9
:103E40001092140510921305B0931205A09311055A
:103E5000BCCFD383C28340815181840F951FC81783
:103E6000D90761F44E5F5F4F88819981480F591FD0
:103E7000518340838A819B819383828321153105FD
:103E800009F0B0CFF0931405E09313059ECFFD0128
:103E9000DC01C0CF13821282D7CFB0E0A0E0E3E50F
:103EA000FFE10C94CB1D8C01009751F4CB010E94D3
:103EB000281E8C01C801CDB7DEB7E0E10C94E71DE8
:103EC000FC01E60FF71F9C0122503109E217F307AE
:103ED00008F49DC0D901CD91DC911197C617D70781
:103EE00098F0C530D10530F3CE01049786179707B7
:103EF00008F3C61BD70B2297C193D1936D937C9384
:103F0000CF010E94C41ED6CF5B01AC1ABD0A4C0182
:103F10008C0E9D1EA0911305B0911405512C412CBF
:103F2000F12CE12C109731F580911105909112053B
:103F30008815990509F05CC04616570608F058C068
:103F400080911A0190911B01009741F48DB79EB7A3
:103F500040911E0150911F01841B950BE817F90732
:103F600008F055C0F0931205E0931105F901718333
:103F70006083A0CF8D919C91119712966C901297AF
:103F800013967C901397A815B90559F56C0142E07A
:103F9000C40ED11CCA14DB0420F1AC014A195B0920
:103FA000DA011296159780F0628273825183408302
:103FB000D9016D937C93E114F10471F0D70113964C
:103FC000FC93EE93129776CF22968C0F9D1FF901EA
:103FD00091838083F301EFCFF0931405E0931305F1
:103FE00069CF4816590608F42C017D01D3019ACFF8
:103FF000CB010E94281E7C01009749F0AE01B80158
:104000000E940A20C8010E94C41E870153CF10E0FD
:1040100000E050CFFB01DC0102C001900D92415045
:104020005040D8F70895FC018191861721F088232C
:10403000D9F7992708953197CF010895FB01DC0145
:104040008D91019080190110D9F3990B0895FB010E
:10405000DC0101900D920020E1F7089513E0CBE11F
:10406000D3E004C0FE010E94221E2196CC31D1076C
:10407000C9F7F894FFCF0000000000000000E8033B
:10408000000000000000050A020001010905090501
:10409000000015058000F902FE0203030B03FE0277
:1040A000100316031C03210327032E0335033B03D0
:1040B000410347037D02230381024F0300000000F8
:1040C000B805180545052006760554056805000065
:1040D0000000F3071805F907EE07400663065006CF
:1040E0000D0A004465616B746976696572740041FC
:1040F0006B746976696572740074302E747874001C
:104100003D22536D6172744B69636B22003A0074F7
:10411000322E747874003D220074332E747874004B
:1041200046726565506C61790054696D65506C61CB
:104130007900436C6173736963506C617900556EEB
:104140006B6E6F776E0074342E74787400202028A4
:104150000029202022006E302E76616C003D300058
:104160006E312E76616C0074312E747874003D22AD
:1041700030303A3030220073636F726500636F6EC7
:1041800066696700576572743A2000556E677565F9
:104190006C746967657220537069656C6D6F6475C6
:1041A000733A2000546F7265207A756D20536965EB
:1041B000672061756620002B002D00537069656CC7
:1041C0007374616E64205465616D20005465616D87
:1041D0006E616D6520006F666600556E6775656C73
:1041E0007469676572205345542D42656665686C35
:1041F0003A2000676574006E787400556E62656BD6
:10420000616E6E7465722042656665686C73747960
:10421000703A20005465616D20426C6175005465F0
:10422000616D2047656C620070616765203000FF3A
:10423000FFFF0045696E6761626520766F6E204EF4
:10424000657874696F6E3A20003D22454E44220025
:104250003D0020676577696E6E742122003D22550E
:104260006E656E74736368696564656E21220066AD
:104270007265650074696D6500636C617373696371
:10428000006D6F646500676F616C730073746172B9
:10429000740073746F700072657365740073636F7C
:1042A0007265310073636F726532006E616D6531E6
:1042B000006E616D6532006465627567006E6578D9
:0A42C00074696F6E0068656C700091
:107E0000112484B714BE81FFF0D085E080938100F7
:107E100082E08093C00088E18093C10086E0809377
:107E2000C20080E18093C4008EE0C9D0259A86E02C
:107E300020E33CEF91E0309385002093840096BBD3
:107E4000B09BFECF1D9AA8958150A9F7CC24DD24C4
:107E500088248394B5E0AB2EA1E19A2EF3E0BF2EE7
:107E6000A2D0813461F49FD0082FAFD0023811F036
:107E7000013811F484E001C083E08DD089C08234E0
:107E800011F484E103C0853419F485E0A6D080C0E4
:107E9000853579F488D0E82EFF2485D0082F10E0AE
:107EA000102F00270E291F29000F111F8ED06801E7
:107EB0006FC0863521F484E090D080E0DECF843638
:107EC00009F040C070D06FD0082F6DD080E0C81688
:107ED00080E7D80618F4F601B7BEE895C0E0D1E017
:107EE00062D089930C17E1F7F0E0CF16F0E7DF06D8
:107EF00018F0F601B7BEE89568D007B600FCFDCFD4
:107F0000A601A0E0B1E02C9130E011968C91119780
:107F100090E0982F8827822B932B1296FA010C0160
:107F200087BEE89511244E5F5F4FF1E0A038BF0790
:107F300051F7F601A7BEE89507B600FCFDCF97BE46
:107F4000E89526C08437B1F42ED02DD0F82E2BD052
:107F50003CD0F601EF2C8F010F5F1F4F84911BD097
:107F6000EA94F801C1F70894C11CD11CFA94CF0C13
:107F7000D11C0EC0853739F428D08EE10CD085E9AC
:107F80000AD08FE07ACF813511F488E018D01DD067
:107F900080E101D065CF982F8091C00085FFFCCF94
:107FA0009093C60008958091C00087FFFCCF809118
:107FB000C00084FD01C0A8958091C6000895E0E648
:107FC000F0E098E1908380830895EDDF803219F02E
:107FD00088E0F5DFFFCF84E1DECF1F93182FE3DFCA
:107FE0001150E9F7F2DF1F91089580E0E8DFEE27F6
:047FF000FF270994CA
:027FFE00040479
:00000001FF
